:020000040800F2
:1000000028060020950100089D0100089F010008B6
:10001000A1010008A3010008A501000800000000DC
:10002000000000000000000000000000A701000820
:10003000A901000800000000AB010008AD010008A4
:10004000AF010008AF010008AF010008AF010008D0
:10005000AF010008AF010008AF010008AF010008C0
:10006000AF010008AF010008AF010008AF010008B0
:10007000AF010008AF010008AF010008AF010008A0
:10008000AF010008AF010008AF0100080000000048
:10009000000000000000000000000000AF010008A8
:1000A000AF010008AF010008AF010008AF01000870
:1000B000AF010008AF010008AF010008AF01000860
:1000C000AF010008AF010008AF010008AF01000850
:1000D000AF010008AF010008AF01000800000000F8
:1000E000AF010008AF010008AF01000800000000E8
:1000F000000000000000000000000000AF01000848
:1001000000000000AF010008AF010008AF010008C7
:1001100000000000000000000000000000000000DF
:10012000AF010008AF010008AF010008AF010008EF
:10013000AF01000800000000000000000000000007
:10014000000000000000000000000000AF010008F7
:10015000AF010008AF010008AF010008AF010008BF
:10016000AF010008AF01000800000000000000001F
:10017000000000000000000000000000000000007F
:1001800000000000AF0100080000000000000000B7
:10019000AF0100080948804709480047FEE7FEE72D
:1001A000FEE7FEE7FEE7FEE7FEE7FEE7FEE7FEE727
:1001B00004480549054A064B70470000DD01000868
:1001C000F101000828000020280600202802002055
:1001D0002802002070477047704700004EF6885193
:1001E000CEF20001086840F470000860704700001B
:1001F00000F00FF84FF000014FF4A0724FF0000331
:100200004FF4F0744FF0000501F0ACFBFFE71FE086
:10021000FEE700B52048016841F0030101601F4876
:100220004FF0553101601E484FF0FF3101601D480D
:100230004FF0000101601C484FF0553101601B4830
:100240004FF0AA31016001F017FB5DF804EB704735
:100250004FF000014FF4A0724FF000034FF4F07420
:100260004FF0000501F07EFB4FF01E014FF0BE0283
:100270000F4B01F098FB4FF0BE014FF0BE020D4B4B
:1002800001F091FB4FF0000C00F03EF900F0F2F8A5
:1002900000F03AF910E0000030380240000002405F
:1002A0000800024000040240080402400C0402401E
:1002B0009849010880A301081CF0100F00D1E5E760
:1002C0001CF0010F00D096E04FF000014FF4A07237
:1002D0004FF000034FF4F0744FF0000501F042FBC3
:1002E0004FF01E014FF0BE02094B01F05CFB4FF0D6
:1002F000BE014FF0BE02074B01F055FB4FF0000C62
:1003000000F002F900F0B6F800F0FEF804E000009A
:10031000D03F0208A8F101081CF0200F98D11CF072
:10032000100F00D1EEE71CF0010F00D031E04FF0CC
:1003300000014FF4A0724FF000034FF4F0744FF03F
:10034000000501F00FFB4FF000094FF0000A4FF0DD
:10035000000B4FF0100C0648C0F800C00548C0F86C
:1003600000900548C0F800A00448C0F800B007E0BD
:100370000000002004000020080000200C000020E5
:1003800000F0D5FE00F07CFD00F069FF01F02CF8D4
:10039000F8E74FF000014FF4A0724FF000034FF464
:1003A000F0744FF0000501F0DDFA4FF000094FF056
:1003B000000A4FF0000B4FF0100C0648C0F800C0C8
:1003C0000548C0F800900548C0F800A00448C0F8EF
:1003D00000B007E00000002004000020080000201A
:1003E0000C00002000F0A3FE00F04AFD00F037FFF3
:1003F00001F0E0F8F8E74FF000014FF4A0724FF081
:1004000000034FF4F0744FF0000501F0ABFA4FF425
:10041000BC784FF078074FF003094FF0A00B4FF076
:10042000C80A4FF0000C0748C0F800800648076073
:100430000648C0F800900648C0F800B00548C0F86B
:1004400000A009E01C00002020000020180000206F
:1004500010000020140000204FF064014FF0A502AE
:10046000C14B01F0A0FA00F0ECF801F0C9FA00F07D
:100470008DF9F8E700B5BD48016804B44FF00002FB
:10048000BA480668B14205D102F10102032AF7DB3E
:1004900004BC03E031464FF00002F1E701F00C0329
:1004A000082B02D12CF0010C03E0042B01D14CF0FD
:1004B000010C01F010034CEA030C4FEA511303F056
:1004C0000103012B04D100F008F85DF804EBBFE64E
:1004D00000F003F85DF804EB70470FB54FF0000330
:1004E000A2480168002905D103F10103C82BC0F21D
:1004F000698502E04FF00003F2E74FF44032521EEC
:10050000FDD1BDE80F4070472DE9FE501CF0010FF2
:100510004AD04FF019014FF0B9034FF0000501F137
:100520006E0203F1050401F01DFA01F1050203F169
:100530006E0401F017FA0E461F4601F16E0207F134
:10054000690303F1050401F00DFA06F1690101F1F7
:1005500005023B4603F16E0401F004FA4FF0B901C5
:100560004FF0B9034FF4784501F16E0203F1050431
:1005700001F0F8F901F1050203F16E0401F0F2F95E
:100580000E461F4601F16E0207F1690303F10504EF
:1005900001F0E8F906F1690101F105023B4603F1BA
:1005A0006E0401F0DFF949E04FF0B9014FF0B903F3
:1005B0004FF0000501F16E0203F1050401F0D2F9DC
:1005C00001F1050203F16E0401F0CCF90E461F465D
:1005D00001F16E0207F1690303F1050401F0C2F9AC
:1005E00006F1690101F105023B4603F16E0401F0D9
:1005F000B9F94FF019014FF0B9034FF4784501F103
:100600006E0203F1050401F0ADF901F1050203F1F9
:100610006E0401F0A7F90E461F4601F16E0207F1C4
:10062000690303F1050401F09DF906F1690101F187
:1006300005023B4603F16E0401F094F9BDE8FE505B
:1006400070470FB54A48D0F800804A4807684748C5
:10065000016804B44FF0000244480668B14204D176
:1006600002F10102032AF7DB03E031464FF00002FA
:10067000F2E704BC4FEA511303F00103012B02D14E
:10068000BDE80F40E4E54FEA111303F00103012B2D
:1006900002D14FF0010C66E008F48074B4F5807F5D
:1006A00061D007F48074B4F5807F5CD04FEA910389
:1006B00003F00303012B02D0022B13D025E04246A6
:1006C00002F0FF0202F11402EB2A04DC08F1140824
:1006D00000F0ECF919E028F0FF0808F1EB0800F051
:1006E000E5F912E0424602F0FF02A2F11402052AE7
:1006F00004DBA8F1140800F0D9F906E028F0FF089F
:1007000008F1050800F0D2F9FFE74FEA911303F072
:100710000303022B02D0012B13D024E03A4602F04F
:10072000FF0202F11402EB2A04DC07F1140700F0C7
:10073000D8F918E027F0FF0707F1EB0700F0D1F92F
:1007400011E03A4602F0FF02A2F11402052A04DB8E
:10075000A7F1140700F0C5F905E027F0FF0707F13E
:10076000050700F0BEF907E0E8E6020810040240C1
:100770001C0000202000002001F042F99448C0F83D
:10078000008094480760BDE80F4070477FB59048EF
:10079000D0F800808F4807688F48D0F800908F48C5
:1007A000D0F800B08E48D0F800A008F48074B4F5FA
:1007B000807F00F0778107F48074B4F5807F00F0CB
:1007C00071814FF0FF05B9F1000F39D140F2FF10F0
:1007D0000BEA00014FEA4B2B0AEA00024FEA4A2AD1
:1007E00001F10A0102F10A02B1F59A7FA8BF00F0F7
:1007F00065F8B2F5BC7FC0F2E38005EA0806A6F111
:100800000206B142C0F2138106F15403994200F38B
:100810000E8140F277124AEA020A4BEA010B00F01D
:1008200085F989F001090BEA00014FEA4B2B0AEA2E
:1008300000024FEA4A2A01F10A01A2F10F02BFE0C9
:100840004FF0FF05B9F1010F41D140F2FF100BEA63
:1008500000014FEA4B2B0AEA00024FEA4A2A01F153
:100860000A01A2F10A02B1F59A7FA8BF00F026F8AA
:10087000182A00F3A58005EA0706A6F10206B14290
:10088000C0F2BF8006F15403994200F3BA804FF0E2
:1008900019024AEA020A4BEA010B00F047F989F013
:1008A00001090BEA00014FEA4B2B0AEA00024FEA6A
:1008B0004A2A01F10A0102F10F0281E02DE9FD5DF2
:1008C00040F2331189F00209BDE8FD5D7047B9F1CE
:1008D000020F37D140F2FF100BEA00014FEA4B2B19
:1008E0000AEA00024FEA4A2AA1F10A0102F10A02C9
:1008F0000C29D8BF00F05BF8B2F5BC7F60DB05EADD
:100900000806A6F10206B142C0F2918006F1540336
:10091000994200F38C8040F277124AEA020A4BEACD
:10092000010B00F003F989F001090BEA00014FEA1D
:100930004B2B0AEA00024FEA4A2AA1F10A01A2F16E
:100940000F023DE040F2FF100BEA00014FEA4B2B93
:100950000AEA00024FEA4A2AA1F10A01A2F10A02B8
:100960000C29D8BF00F023F8182A29DC05EA07066D
:10097000A6F10206B14244DB06F15403994240DC81
:100980004FF019024AEA020A4BEA010B00F0CEF8D6
:1009900089F001090BEA00014FEA4B2B0AEA000239
:1009A0004FEA4A2AA1F10A0102F10F0208E02DE9FB
:1009B000FD5D4FF00D0189F00209BDE8FD5D704756
:1009C0004AEA020A4BEA010B00F0B0F80AE0000024
:1009D0001C00002020000020180000201000002033
:1009E000140000204C48C0F800804C4807604C4878
:1009F000C0F800904B48C0F800B04B48C0F800A0C9
:100A00007FBD4AEA020A4BEA010B00F08FF808F5B5
:100A1000007808F4606500F0BEF94FF00003B5F50A
:100A2000206F27D148F4807800F05BF9C8E74AEAE4
:100A3000020A4BEA010B00F079F807F5007707F49A
:100A4000606600F0BEF94FF00103B6F5206F11D1DA
:100A500047F4807700F05CF9B2E74FF078084FF088
:100A600078074FF0A00B4FF0C80A4FF0000C00F0D1
:100A7000D3F9ABE708F4706848F0780807F47067BA
:100A800047F078074FF0A00B4FF01A0A89F00109E0
:100A9000012B04D14FF4BB7A00F0A8F996E700F0DF
:100AA000A5F993E7BCF1010FD7D08FE72DE97E417F
:100AB0004FF0050140F23B1240F27F134FF4C57432
:100AC00041F2250500F04EFF414601F1500240F28F
:100AD0007F134FF4C5744FF2E97500F043FFBDE892
:100AE0007E81FEB54FF0050140F23B124FF0060348
:100AF0004FF0110441F2250500F034FF394601F1B1
:100B000050024FF006034FF011044FF2EB1500F0C6
:100B100029FFFEBD0AE000001C000020200000208C
:100B200018000020100000201400002000B500F084
:100B300005F800F081F85DF804EB70472DE9FE50F0
:100B40004FEA5B2640F2FF1C06EA0C064FEA5A27E2
:100B500007EA0C0741F22505A6F1040106F104029B
:100B6000A7F1040307F1040400F0FCFE01F1010108
:100B7000A2F10102A3F1010304F1010400F0F2FE6D
:100B800001F10101A2F10102A3F1010304F1010449
:100B900000F0E8FE01F10101A2F10102A3F101035D
:100BA00004F1010400F0DEFEA6F1050106F10502E4
:100BB000A7F1030307F1030400F0D4FEA1F1010142
:100BC00002F1010203F10103A4F1010400F0CAFEE5
:100BD000A1F1010102F1010203F10103A4F10104F9
:100BE00000F0C0FE0C2E03DBB6F59A7F0DDC20E092
:100BF0004FF000014FF00402A7F10A0307F10A04C5
:100C00004FF6FF7500F0AEFE13E040F23B1140F2EC
:100C10003F12A7F10A0307F10A044FF6FF7500F02F
:100C2000A1FE4FF49D7140F23B1241F2250500F008
:100C300099FEBDE8FE5070472DE9FE505E4640F239
:100C4000FF1C06EA0C06574607EA0C074FF620552C
:100C5000A6F1040106F10402A7F1040307F104045C
:100C600000F080FE01F10101A2F10102A3F10103F4
:100C700004F1010400F076FE01F10101A2F101028C
:100C8000A3F1010304F1010400F06CFE01F1010184
:100C9000A2F10102A3F1010304F1010400F062FEDC
:100CA000A6F1050106F10502A7F1030307F103040C
:100CB00000F058FEA1F1010102F1010203F101036C
:100CC000A4F1010400F04EFEA1F1010102F10102C4
:100CD00003F10103A4F1010400F044FEBDE8FE505D
:100CE00070470EB54FF000014FF03C024FF4C8734F
:100CF0004FF4F0744FF0C70500F034FE4FF00401DC
:100D00004FF4CC72A54B00F04EFEBDE80E4070478C
:100D10000EB54FF000014FF03C024FF4C8734FF492
:100D2000F0744FF0C70500F01DFE4FF004014FF4C2
:100D3000CC729B4B00F037FEBDE80E4070473EB5CD
:100D40004FF0000140F23F124FF000034FF0040457
:100D50004FF6FF7500F006FE4FF000014FF0040261
:100D60004FF0000340F28F1400F0FCFD40F23B1105
:100D700040F23F124FF0000340F28F1400F0F2FDFA
:100D80004FF0000140F23F124FF4C57340F28F1450
:100D900000F0E8FD3EBD2DE90E414FEA5828A8F1CC
:100DA00001084FF0190108FB01F84FF48671A1EB1F
:100DB000080140F299127B4B00F0F5FDBDE80E41B1
:100DC00070478EB54FEA5727A7F101074FF0190179
:100DD00007FB01F74FF48671A1EB070140F2C11246
:100DE000704B00F0E0FDBDE88E4070473EB54FF01F
:100DF000060140F23B124FF0060340F28B1441F221
:100E0000250500F0AFFDFFF751FEFFF76AFEFFF783
:100E10008DFEBDE83E4070473EB54FF000014FF4F7
:100E2000A0724FF000034FF4F07441F2250500F07A
:100E300099FDFFF784FFFFF739FEFFF752FEFFF73A
:100E400075FE4FF000014FF4A0724FF4C8734FF4D9
:100E5000F0744FF0C70500F085FD40F2271140F215
:100E60009312514B00F09FFD4FF000014FF4C872F8
:100E70004E4B00F098FDFFF762FFBDE83E40704723
:100E80002DE9FF4F4A4CD4F800C040F2FF150CEAA0
:100E900005034848016804B44FF00002454806685D
:100EA000B14204D102F10102052AF7DB03E0314629
:100EB0004FF00002F2E704BC0E4606F03F064FF08A
:100EC00000074FF0060816F0010F0CBF3F1C7F1CF7
:100ED0004FEA5606B8F10108F5D1012F59D14FEA72
:100EE000511303F00103012B07D100F068F8C4F897
:100EF00000C0BDE8FF4FFFF7E7B940F2FF130CEA6F
:100F0000030311F0010F0BD000F059F84FEAD30C96
:100F10000CEA050CBCF1000F3BD0C4F800C04BE05C
:100F200011F0020F0BD000F04AF84FEAC30C0CEAA4
:100F3000050CBCF1000F2CD0C4F800C03CE011F04F
:100F4000040F0BD000F03BF84FEA430C0CEA050C01
:100F5000BCF1000F1DD0C4F800C02DE011F0080F47
:100F60000BD000F02CF84FEA530C0CEA050CBCF146
:100F7000000F0ED0C4F800C01EE011F0100F08D012
:100F800000F01DF84FF001024CEA422CC4F800C0FA
:100F900012E04CEA030C75E70EE00000782F010820
:100FA00074910208F88D0208C09701089073030835
:100FB0000000002010040240BDE8FF4F70470FB54D
:100FC0004FF000033A480168002904D103F10103FE
:100FD000C82BF7DB02E04FF00003F3E74FF4403299
:100FE000521EFDD1BDE80F4070473FB54FF00001E4
:100FF00001F105024FF000034FF4BE744FF6FF7588
:1010000000F0B0FC4FF0690101F105024FF0000360
:101010004FF4BE744FF6FF7500F0A4FC4FF0D20100
:1010200001F105024FF000034FF4BE744FF6FF7557
:1010300000F098FC40F23B1101F105024FF0000373
:101040004FF4BE744FF6FF7500F08CFC4FF00001BA
:101050004FF4A0724FF0000303F105044FF6FF7543
:1010600000F080FC4FF000014FF4A0724FF07D03C0
:1010700003F105044FF6FF7500F074FC4FF000011A
:101080004FF4A0724FF0FA0303F105044FF6FF7519
:1010900000F068FC4FF000014FF4A07240F27713AB
:1010A00003F105044FF6FF7500F05CFC02E0000060
:1010B00010040240BDE83F4070472DE90E4C4FF050
:1010C000000140F23F124FF000034FF4BE744FF0A6
:1010D000000500F047FC4FF0000140F23F124FF4D2
:1010E000D77340F2DF144FF0000500F03BFC4FF0E7
:1010F0004E014FF4D7720A4B00F055FCFFF775FF15
:101100004FF0100C0748C0F800C000F0A8F84FF0EE
:10111000000140F23F124FF4D77340F2DF1403E0B6
:1011200094AB020800000020BDE80E4C70472DE98A
:101130003E4CFFF7C2FF4FF000014FF4A0724FF496
:10114000BE734FF4D77441F26A1500F00BFC4FF0F8
:1011500003014FF4C572094B00F025FC4FF0A001CC
:101160004FF4C572064B00F01EFC4FF04E014FF4D9
:10117000D772044B00F017FC06E0000018180108B5
:10118000841F010894AB0208BDE83E4C7047FFE79E
:101190002DE90E444FF0000140F23F124FF4D77397
:1011A00040F2DF144FF0000500F0DCFB4FF064016B
:1011B0004FF4D772734B00F0F6FB4FEA9A2A0AF00D
:1011C000070AAAF1010A4FF014010AFB01FA0AF119
:1011D0003C014FF4BE726C4B00F0E5FBBDE80E44E1
:1011E00070472DE90E484FF0000140F23F124FF4D6
:1011F000D77340F2DF144FF0000500F0B3FB4FF05F
:1012000064014FF4D772614B00F0CDFB4FEA9B2B8A
:10121000ABF1010B4FF014010BFB01FB0BF1DC01F7
:101220004FF4BE72584B00F0BEFBBDE80E4870474D
:101230000EB54FF0000140F23F124FF4D77340F269
:10124000DF144FF0000500F08DFB4FF064014FF408
:10125000D7724F4B00F0A7FBBDE80E4070472DE959
:10126000FF5FFFF7C2FE4B490E6840F2FF1806EA27
:1012700008064FF6E07500F005F800F05FF8BDE8ED
:10128000FF5F70472DE9F5434FF001084FF001096A
:1012900016EA080F08D14FEA480809F10109B9F127
:1012A0000A0FF5DB4FF00509B9F1010F04D14FF03A
:1012B00000014FF000033EE0B9F1020F04D14FF0FE
:1012C00069014FF0000336E0B9F1030F04D14FF08C
:1012D000D2014FF000032EE0B9F1040F04D14FF01A
:1012E00000014FF07D0326E0B9F1050F04D14FF066
:1012F00069014FF07D031EE0B9F1060F04D14FF0F4
:10130000D2014FF07D0316E0B9F1070F04D14FF081
:1013100000014FF0FA030EE0B9F1080F04D14FF0CD
:1013200069014FF0FA0306E0B9F1090F03D14FF05C
:10133000D2014FF0FA03BDE8F5437047FFB501F164
:101340006E0203F1050400F00DFB01F1050203F14B
:10135000820400F007FB0E461F4601F16E0207F102
:101360007D0303F1050400F0FDFA06F1690101F1C6
:1013700005023B4603F1820400F0F4FABDE8FF40A9
:10138000704709E0608B0008A027010848BA0008F0
:1013900030E90008000000202DE94E517F490E6819
:1013A00040F2FF1806EA0806FFF76CFF01F10C0196
:1013B00003F115027A4B00F0F6FABDE84E51704782
:1013C0002DE94E5175490E6840F2FF1806EA0806ED
:1013D000FFF758FF01F1120103F11402714B00F005
:1013E000E2FABDE84E5170472DE939506B48D0F80C
:1013F00000C06D48D0F800906C48D0F800A06C4850
:10140000D0F800B04FF4007303EA0C03002B00F097
:10141000B7804FF4007303EA0A03002B55D14FF451
:10142000007303EA0B03002B4FD140F2FF1303EAD2
:10143000090340F2FF15AB4247D040F2FF1303EA25
:101440000C0303EA0903002B40F09A804FF4007369
:1014500003EA0903002B00D01BE040F2FF1303EA6C
:101460000C0349EA03094AEA030A49F40079FFF741
:1014700093FF40F2FF1303EA0A0300F040F84AEA40
:10148000030AB3F5007F7BD10AF5806AFFF780FE7F
:1014900076E040F2FF1303EA0C0349EA03094BEA42
:1014A000030B29F40079FFF78BFF40F2FF1303EAE7
:1014B0000B0300F024F84BEA030BB3F5007F5FD178
:1014C0000BF5806BFFF78DFE5AE040F2FF1529EA1D
:1014D000050940F2FF352AEA050A2BEA050B4FF40D
:1014E000A055AA4504D0AB4502D0FFF7E6FD47E082
:1014F0004FF0000A4FF0000BFFF719FE40E000B577
:1015000040F2111503EA0504AC4234D04FF0540503
:1015100003F05404AC422ED04FF0070503EA050453
:10152000AC4228D04FF0380503EA0504AC4222D083
:101530004FF4E07503EA0504AC421CD04FF04905B6
:1015400003EA0504AC4216D04FF0920503EA050405
:10155000AC4210D04FF4927503EA0504AC420AD0B5
:1015600040F2FF1404EA090440F2FF15AC4208BF40
:10157000FFF75EFE00BD4FF400735DF804EB7047AB
:101580000948C0F800900948C0F800A00848C0F811
:1015900000B0BDE8395070470CE0000000000020AA
:1015A000141A0008E8550008040000200800002074
:1015B0000C0000202DE93F508C48D0F800C08C482A
:1015C000D0F800908B48D0F800A08B48D0F800B03D
:1015D0004FF4007303EA0C03002B00F077804FF404
:1015E000007303EA0A03002B42D14FF4007303EAAD
:1015F0000B03002B3CD140F2FF1303EA090340F236
:10160000FF15AB4234D040F2FF1303EA0C0303EAA8
:101610000903002B40F05A8040F2FF1303EA0C0349
:1016200049EA03094AEA030A49F40079FFF7B4FEDC
:1016300040F2FF1303EA0A03FFF761FF4AEA030AD5
:10164000B3F5007F0AD040F2FF1303EA090340F22A
:10165000FF15AB4209D000F048F837E00AF5806A80
:101660004AF4803AFFF794FD30E0FFF7E1FD2DE00A
:1016700040F2FF1529EA050940F2FF352AEA050A7A
:101680002BEA050B4FF4E0550AEA05064FF4A05586
:10169000AE420BD0AB4509D0FFF70FFD1AF4803FE7
:1016A00018BF00F022F82AF4803A0FE04FF4E0551A
:1016B0002AEA050A4FF0000BFFF739FD1AF4803FC4
:1016C00018BF00F012F82AF4803AFFE74748C0F844
:1016D00000C04748C0F800904648C0F800A04648FF
:1016E000C0F800B0BDE83F5070473FB500F021F8AA
:1016F0003E48D0F800C0FFF7B2FD40F2FF1303EA06
:101700000C0349EA03094BEA030B29F40079FFF7BC
:1017100057FE40F2FF1303EA0B03FFF7F0FE4BEA1C
:10172000030BB3F5007F03D10BF5806BFFF759FD79
:101730003FBDFFB54FF0000440F2FF1505EA090573
:1017400040F2FF1685EA06055C464FF001064FF0B1
:101750000107354209D044EA060038B40346FFF7D2
:10176000CEFEB3F5007F38BC39D04FEA460607F10C
:1017700001070A2FEDDB54464FF001064FF0010739
:10178000354209D044EA060038B40346FFF7B7FEF5
:10179000B3F5007F38BC22D04FEA460607F10107B7
:1017A0000A2FEDDB4FF01006354218D14FF001063D
:1017B000354214D14FF00406354210D14FF04006A7
:1017C00035420CD14FF48076354208D14FF00106F6
:1017D000354204D14FEA4606B6F5007FF8DBB44641
:1017E0000248C0F800C0FFBD08E000000000002073
:1017F00004000020080000200C00002006B57F49EE
:101800000A6822F400420A6022F480520A6042F41C
:1018100080620A6022F0FF0200F0FF0042EA00024C
:101820000A6022F400620A6042F400620A6042F434
:1018300000420A60BDE80640704706B56F490A6875
:1018400022F400420A6042F480520A6042F480624C
:101850000A6022F0FF0200F0FF0042EA00020A6084
:1018600022F400620A6042F400620A6042F400421C
:101870000A60BDE80640704707B560490A6842F44F
:1018800080720A6000F0BCF822F480720A6000F0F6
:10189000B7F842F480720A6000F0B2F842F40042F5
:1018A0000A6042F4006242F480620A6022F400425C
:1018B0000A604FF0C500FFF7A1FF4FF05400FFF79B
:1018C000BCFF4FF00000FFF7B8FF4FF03A00FFF702
:1018D00095FF4FF05500FFF7B0FF4FF03600FFF7D0
:1018E0008DFF4FF04800FFF7A8FF4FF01100FFF702
:1018F00085FF00F085F84FF02900FFF77FFF4FF0DC
:101900002000FFF77BFFBDE8074070471FB54FF091
:101910002A00FFF773FF4FEA1120FFF78EFF01F057
:10192000FF00FFF78AFF4FEA1220FFF786FF02F061
:10193000FF00FFF782FF4FF02B00FFF75FFF4FEA3A
:101940001320FFF77AFF03F0FF00FFF776FF4FEA5F
:101950001420FFF772FF04F0FF00FFF76EFFBDE8F1
:101960001F4070472DE9FF41FFF7D0FF4FF02C00DB
:10197000FFF744FF4FEA152605F0FF05A2EB01072C
:1019800007F10107A4EB030808F1010807FB08F7BA
:101990003046FFF752FF2846FFF74FFF7F1EF7D173
:1019A000BDE8FF4170472DE9FF411D4655F8046B26
:1019B00055F8047B06FB07F8134601EB0602A2F17B
:1019C000010203EB0704A4F10104FFF79FFF4FF0AE
:1019D0002C00FFF713FF35F8020B4FEA102100F03F
:1019E000FF020846FFF729FF1046FFF726FFB8F170
:1019F0000108F0DCBDE8FF41704701E0140002403F
:101A000001B50348401EFDD1BDE80140704700000C
:101A100004860100560000005900000020A821C8DB
:101A200021C021C021C821C821C821C821C821C87E
:101A300021C821C821C821C821C821C821C821C85E
:101A400021C821C821C821C821C021C021C80058EF
:101A50000000000000000000000000000000000086
:101A60000000000000000000000000000000000076
:101A70000000000000000000000000000000000066
:101A80000000000000000000000000000000000056
:101A90000000000000000000000000000000000046
:101AA0000000000000000000000000000000000036
:101AB0000000005021C821C821C821C821C021D060
:101AC0002088000000000000002821C841F041F0FB
:101AD00041F041F041F041F041F041F041F041F07E
:101AE00041F041F041F041F041F041F041F041F06E
:101AF00041F041F041F041F041F021C800280000E0
:101B000000000000000000000000000000000000D5
:101B100000000000000000000000000000000000C5
:101B200000000000000000000000000000000000B5
:101B300000000000000000000000000000000000A5
:101B40000000000000000000000000000000000095
:101B5000000000000000000000000000002821C874
:101B600041F041F041F041F041F021B8000800009F
:101B7000000000000000206821D041F041F041F059
:101B800041F041F041F041F041F041F041F041F0CD
:101B900041F041F041F041F041F041F041F041F0BD
:101BA00041F041F041F041F020B0000000000000A1
:101BB0000000000000000000000000000000000025
:101BC0000000000000000000000000000000000015
:101BD0000000000000000000000000000000000005
:101BE00000000000000000000000000000000000F5
:101BF00000000000000000000000000000000000E5
:101C0000000000000000001021B841F041F041F058
:101C100041F041F021C00010000000000000000071
:101C200000000000209841F041F041F041F041F007
:101C300041F041F041F041F041F041F041F041F01C
:101C400041F041F041F041F041F041F041F041F00C
:101C500041F041F021D020700000000000000000A1
:101C60000000000000000000000000000000000074
:101C70000000000000000000000000000000000064
:101C80000000000000000000000000000000000054
:101C90000000000000000000000000000000000044
:101CA0000000000000000000000000000000000034
:101CB000000020B041F041F041F041F041F021C876
:101CC00000280000000000000000000000000000EC
:101CD000002021C041F041F041F041F041F041F0DD
:101CE00041F041F041F041F041F041F041F041F06C
:101CF00041F041F041F041F041F041F041F041F05C
:101D000041F021C800300000000000000000000089
:101D100000000000000000000000000000000000C3
:101D200000000000000000000000000000000000B3
:101D300000000000000000000000000000000000A3
:101D40000000000000000000000000000000000093
:101D5000000000000000000000000000209821D0DA
:101D600041F041F041F041F021D00040000000007E
:101D7000000000000000000000000000000000580B
:101D800021D041F041F041F041F041F041F02070AC
:101D90002078207820782078207820782078207883
:101DA0002080207820B041F041F041F041F041F036
:101DB00020B0000000000000000000000000000053
:101DC0000000000000000000000000000000000013
:101DD0000000000000000000000000000000000003
:101DE00000000000000000000000000000000000F3
:101DF00000000000000000000000000000000000E3
:101E0000000000000000208821D041F041F041F0A6
:101E100041F021D000580000000000000000000048
:101E2000000000000000000000000000209041F0D1
:101E300041F041F041F041F041F0000800000000A5
:101E40000000000000000000000000000000000092
:101E5000002821C841F041F041F041F021D0207824
:101E60000000000000000000000000000000000072
:101E70000000000000000000000000000000000062
:101E80000000000000000000000000000000000052
:101E90000000000000000000000000000000000042
:101EA0000000000000000000000000000000000032
:101EB000206821D041F041F041F041F021D020785C
:101EC0000000000000000000000000000000000012
:101ED0000000000000000000001021B841F041F0B7
:101EE00041F041F041F020900000000000000000AF
:101EF0000000000000000000000000000000006082
:101F000021D041F041F041F041F021D000380000F3
:101F100000000000000000000000000000000000C1
:101F200000000000000000000000000000000000B1
:101F300000000000000000000000000000000000A1
:101F40000000000000000000000000000000000091
:101F500000000000000000000000004821D041F017
:101F600041F041F041F021D0209800000000000035
:101F70000000000000000000000000000000000061
:101F8000000000000000004821D041F041F041F085
:101F900041F021D0004800000000000000000000D7
:101FA000000000000000000000000000209841F048
:101FB00041F041F041F041F021B800000000000084
:101FC0000000000000000000000000000000000011
:101FD0000000000000000000000000000000000001
:101FE00000000000000000000000000000000000F1
:101FF00000000000000000000000000000000000E1
:1020000000000000003021C841F041F041F041F0F3
:1020100041F020A8000000000000000000000000C7
:1020200000000000000000000000000000000000B0
:1020300000000000209841F041F041F041F041F0F3
:1020400021C8002000000000000000000000000087
:102050000000000000000000001821C041F041F025
:1020600041F041F041F0209000000000000000002D
:102070000000000000000000000000000000000060
:102080000000000000000000000000000000000050
:102090000000000000000000000000000000000040
:1020A0000000000000000000000000000000002010
:1020B00021C041F041F041F041F041F021B8000869
:1020C0000000000000000000000000000000000010
:1020D0000000000000000000000000000000000000
:1020E000000821B841F041F041F041F041F020A05A
:1020F00000000000000000000000000000000000E0
:10210000000000000000005021D041F041F041F0FB
:1021100041F021D000480000000000000000000055
:1021200000000000000000000000000000000000AF
:10213000000000000000000000000000000000009F
:10214000000000000000000000000000000000008F
:102150000000000000000000000821C041F041F034
:1021600041F041F041F021C80020000000000000D3
:10217000000000000000000000000000000000005F
:10218000000000000000000000000000000000400F
:1021900021D041F041F041F041F021D00068000031
:1021A000000000000000000000000000000000002F
:1021B00000000000209841F041F041F041F041F072
:1021C00021C800080000000000000000000000001E
:1021D00000000000000000000000000000000000FF
:1021E00000000000000000000000000000000000EF
:1021F00000000000000000000000000000000000DF
:102200000000000020A041F041F041F041F041F019
:1022100021D0003800000000000000000000000095
:1022200000000000000000000000000000000000AE
:10223000000000000000000000000000207821D015
:1022400041F041F041F041F021C8002000000000C1
:10225000000000000000000000000000000000007E
:10226000001021C041F041F041F041F041F02090D8
:10227000000000000000000000000000000000005E
:10228000000000000000000000000000000000004E
:10229000000000000000000000000000000000003E
:1022A000000000000000000000000000000020808E
:1022B00021D041F041F041F041F021D020680000F0
:1022C000000000000000000000000000000000000E
:1022D00000000000000000000000000000000000FE
:1022E0000000000000000000000020B041F041F0BC
:1022F00041F041F041F020A8000000000000000083
:102300000000000000000000000000000000004885
:1023100021D041F041F041F041F021D000580000BF
:1023200000000000000000000000000000000000AD
:10233000000000000000000000000000000000009D
:10234000000000000000000000000000000000008D
:102350000000000000000000206821D041F041F0A2
:1023600041F041F021D0207000000000000000008A
:10237000000000000000000000000000000000005D
:10238000000000000000000000000000000000004D
:10239000000000000000003021C841F041F041F091
:1023A00041F021D02070000000000000000000007B
:1023B000000000000000000000000000208841F044
:1023C00041F041F041F041F021C000100000000058
:1023D00000000000000000000000000000000000FD
:1023E00000000000000000000000000000000000ED
:1023F00000000000000000000000000000000000DD
:102400000000005021D041F041F041F041F041F096
:102410002088000000000000000000000000000014
:1024200000000000000000000000000000000000AC
:10243000000000000000000000000000000000009C
:1024400000000000207021D041F041F041F041F047
:1024500021D000300000000000000000000000005B
:102460000000000000000000000021B841F041F031
:1024700041F041F041F020A0000000000000000009
:10248000000000000000000000000000000000004C
:10249000000000000000000000000000000000003C
:1024A000000000000000000000000000004021D0FB
:1024B00041F041F041F041F041F020A00000000067
:1024C000000000000000000000000000000000000C
:1024D00000000000000000000000000000000000FC
:1024E00000000000000000000000000000000000EC
:1024F000000020B041F041F041F041F041F020B047
:1025000000000000000000000000000000000000CB
:10251000000000000000003821D041F041F041F0FF
:1025200041F021D000580000000000000000000031
:10253000000000000000000000000000000000009B
:10254000000000000000000000000000000000008B
:10255000000000000000001821C041F041F041F0EF
:1025600041F041F021B80008000000000000000028
:10257000000000000000000000000000000000005B
:10258000000000000000000000000000000000004B
:10259000000000000000000000000000000000201B
:1025A00021C841F041F041F041F021D020800000ED
:1025B000000000000000000000000000000000001B
:1025C00000000000207821D041F041F041F041F0BE
:1025D00021C80028000000000000000000000000EA
:1025E00000000000000000000000000000000000EB
:1025F00000000000000000000000000000000000DB
:10260000000820B041F041F041F041F041F021D00C
:102610000028000000000000000000000000000092
:1026200000000000000000000000000000000000AA
:10263000000000000000000000000000000000009A
:10264000000000000000000000000000006821D031
:1026500041F041F041F041F021D00038000000008D
:10266000000000000000000000000000000000006A
:10267000000020B041F041F041F041F041F020A0D5
:10268000000000000000000000000000000000004A
:10269000000000000000000000000000000000003A
:1026A00000000000000000000000000020A041F039
:1026B00041F041F041F041F021D000400000000025
:1026C000000000000000000000000000000000000A
:1026D00000000000000000000000000000000000FA
:1026E00000000000000000000000000000000000EA
:1026F00000000000000000000000209841F041F0C0
:1027000041F041F041F020B0000000000000000066
:102710000000000000000000000000000000003089
:1027200021C841F041F041F041F021D02068000083
:102730000000000000000000000000000000000099
:102740000000000000000000000000000000000089
:10275000000000000000208821D041F041F041F04D
:1027600041F021D0005800000000000000000000EF
:102770000000000000000000000000000000000059
:102780000000000000000000000000000000000049
:102790000000000000000000000000000000000039
:1027A000000000000000002021C841F041F041F08D
:1027B00041F041F02088000000000000000000000F
:1027C000000000000000000000000000207021D088
:1027D00041F041F041F041F021D00028000000001C
:1027E00000000000000000000000000000000000E9
:1027F00000000000000000000000000000000000D9
:10280000207821D041F041F041F041F021D0206802
:1028100000000000000000000000000000000000B8
:1028200000000000000000000000000000000000A8
:102830000000000000000000000000000000000098
:102840000000000000000000000000000000000088
:1028500000000000005021D041F041F041F041F073
:1028600021D0004000000000000000000000000037
:102870000000000000000000000020B041F041F026
:1028800041F041F041F020B00000000000000000E5
:102890000000000000000000000000000000000038
:1028A00000000000000000000000005821D041F0AE
:1028B00041F041F041F021D02088000000000000EC
:1028C0000000000000000000000000000000000008
:1028D00000000000000000000000000000000000F8
:1028E00000000000000000000000000000000000E8
:1028F00000000000000000000000000000000000D8
:102900000000209841F041F041F041F041F021C039
:1029100000080000000000000000000000000000AF
:10292000000000000000002821C841F041F041F003
:1029300041F041F020800000000000000000000095
:102940000000000000000000000000000000000087
:1029500000000000003821D041F041F041F041F08A
:1029600041F020B000000000000000000000000066
:102970000000000000000000000000000000000057
:102980000000000000000000000000000000000047
:102990000000000000000000000000000000000037
:1029A0000000000000000000000000000000001017
:1029B00021C041F041F041F041F041F02090000091
:1029C0000000000000000000000000000000000007
:1029D00000000000006021D041F041F041F041F0E2
:1029E00021D00038000000000000000000000000BE
:1029F00000000000000000000000000000000020B7
:102A000021C041F041F041F041F041F020B0000818
:102A100000000000000000000000000000000000B6
:102A200000000000000000000000000000000000A6
:102A30000000000000000000000000000000000096
:102A40000000000000000000000000000000000086
:102A5000000000000000000000000000004021D045
:102A600041F041F041F041F021D000580000000059
:102A70000000000000000000000000000000000056
:102A8000000020A041F041F041F041F041F021C0B0
:102A90000000000000000000000000000000000036
:102AA0000000000000000000000821B841F041F0E3
:102AB00041F041F041F021C000180000000000008A
:102AC0000000000000000000000000000000000006
:102AD00000000000000000000000000000000000F6
:102AE00000000000000000000000000000000000E6
:102AF00000000000000000000000000000000000D6
:102B000000000000000000000000208841F041F0BB
:102B100041F041F041F021C0001800000000000029
:102B20000000000000000000000000000000001095
:102B300021B841F041F041F041F041F02080000027
:102B40000000000000000000000000000000000085
:102B50000000000020A841F041F041F041F041F0B8
:102B600021C8003800000000000000000000000044
:102B70000000000000000000000000000000000055
:102B80000000000000000000000000000000000045
:102B90000000000000000000000000000000000035
:102BA0000000000000000000000000000000000025
:102BB000000000000000000021B841F041F041F0A9
:102BC00041F041F020A000000000000000000000E3
:102BD000000000000000000000000000005821D0AC
:102BE00041F041F041F041F021D0004800000000E8
:102BF000000000000000000000000000000020882D
:102C000021D041F041F041F041F021D000580000C6
:102C100000000000000000000000000000000000B4
:102C200000000000000000000000000000000000A4
:102C30000000000000000000000000000000000094
:102C40000000000000000000000000000000000084
:102C50000000000000000000000000000000000074
:102C600000000000003821D041F041F041F041F077
:102C700021D00068000000000000000000000000FB
:102C800000000000000000000000209041F041F032
:102C900041F041F041F021C00008000000000000B8
:102CA0000000000000000000207021D041F041F041
:102CB00041F041F021D02078000000000000000029
:102CC0000000000000000000000000000000000004
:102CD00000000000000000000000000000000000F4
:102CE00000000000000000000000000000000000E4
:102CF00000000000000000000000000000000000D4
:102D000000000000000000000000000000000000C3
:102D10000000207821D041F041F041F041F021C87D
:102D2000002800000000000000000000000000007B
:102D3000000000000000000821B841F041F041F01F
:102D400041F041F020900000000000000000000071
:102D50000000005821D041F041F041F041F021D075
:102D600020900000000000000000000000000000B3
:102D70000000000000000000000000000000000053
:102D80000000000000000000000000000000000043
:102D90000000000000000000000000000000000033
:102DA0000000000000000000000000000000000023
:102DB0000000000000000000000000000000000013
:102DC00020B041F041F041F041F041F020A8000076
:102DD00000000000000000000000000000000000F3
:102DE00000000000004821C841F041F041F041F0EE
:102DF00021D000500000000000000000004021D061
:102E000041F041F041F041F041F020A0000000000D
:102E100000000000000000000000000000000000B2
:102E200000000000000000000000000000000000A2
:102E30000000000000000000000000000000000092
:102E40000000000000000000000000000000000082
:102E50000000000000000000000000000000000072
:102E6000000000000000000000000000003021C849
:102E700041F041F041F041F021D020680000000015
:102E80000000000000000000000000000000000042
:102E90000000208841F041F041F041F041F021C0B4
:102EA000001800000000002021C841F041F041F06E
:102EB00041F041F020B000080000000000000000D8
:102EC0000000000000000000000000000000000002
:102ED00000000000000000000000000000000000F2
:102EE00000000000000000000000000000000000E2
:102EF00000000000000000000000000000000000D2
:102F000000000000000000000000000000000000C1
:102F100000000000000000000000207821D041F0F7
:102F200041F041F041F021D00030000000000000ED
:102F30000000000000000000000000000000000091
:102F400021C041F041F041F041F041F020A80000E3
:102F5000000821B841F041F041F041F041F021C8B2
:102F60000020000000000000000000000000000041
:102F70000000000000000000000000000000000051
:102F80000000000000000000000000000000000041
:102F90000000000000000000000000000000000031
:102FA0000000000000000000000000000000000021
:102FB0000000000000000000000000000000000011
:102FC000000000000000000020A841F041F041F0A6
:102FD00041F041F020B000000000000000000000BF
:102FE000000000000000000000000000003021C8C8
:102FF00041F041F041F041F021D02070209841F0A3
:1030000041F041F041F041F021D0003800000000D3
:1030100000000000000000000000000000000000B0
:1030200000000000000000000000000000000000A0
:103030000000000000000000000000000000000090
:103040000000000000000000000000000000000080
:103050000000000000000000000000000000000070
:103060000000000000000000000000000000000060
:1030700000000000002021D041F041F041F041F07B
:1030800021D02078000000000000000000000000B7
:1030900000000000000000000000208021D041F06E
:1030A00041F041F041F041F041F041F041F041F098
:1030B00041F021D000580000000000000000000096
:1030C0000000000000000000000000000000000000
:1030D00000000000000000000000000000000000F0
:1030E00000000000000000000000000000000000E0
:1030F00000000000000000000000000000000000D0
:1031000000000000000000000000000000000000BF
:1031100000000000000000000000000000000000AF
:103120000000006021D041F041F041F041F021D099
:103130000038000000000000000000000000000057
:10314000000000000000000020B041F041F041F01C
:1031500041F041F041F041F041F041F021D02070C8
:10316000000000000000000000000000000000005F
:10317000000000000000000000000000000000004F
:10318000000000000000000000000000000000003F
:10319000000000000000000000000000000000002F
:1031A000000000000000000000000000000000001F
:1031B000000000000000000000000000000000000F
:1031C00000000000000000000000000000000000FF
:1031D000209841F041F041F041F041F021B8000861
:1031E00000000000000000000000000000000000DF
:1031F00000000000002821D041F041F041F041F0F2
:1032000041F041F041F021D0208800000000000092
:1032100000000000000000000000000000000000AE
:10322000000000000000000000000000000000009E
:10323000000000000000000000000000000000008E
:10324000000000000000000000000000000000007E
:10325000000000000000000000000000000000006E
:10326000000000000000000000000000000000005E
:10327000000000000000000000000000001021C05D
:1032800041F041F041F041F041F0208800000000A1
:10329000000000000000000000000000000000002E
:1032A0000000006021D041F041F041F041F041F0D8
:1032B00041F0209800000000000000000000000025
:1032C00000000000000000000000000000000000FE
:1032D00000000000000000000000000000000000EE
:1032E00000000000000000000000000000000000DE
:1032F00000000000000000000000000000000000CE
:1033000000000000000000000000000000000000BD
:1033100000000000000000000000000000000000AD
:1033200000000000000000000000004821D041F033
:1033300041F041F041F021D00050000000000000B9
:10334000000000000000000000000000000000007D
:1033500020A041F041F041F041F041F041F000186F
:10336000000000000000000000000000000000005D
:10337000000000000000000000000000000000004D
:10338000000000000000000000000000000000003D
:10339000000000000000000000000000000000002D
:1033A000000000000000000000000000000000001D
:1033B000000000000000000000000000000000000D
:1033C00000000000000000000000000000000000FD
:1033D0000000000000000000209041F041F041F0AA
:1033E00041F041F021C8000800000000000000008A
:1033F000000000000000000000000000001821C0D4
:1034000041F041F041F041F041F02078000000002F
:1034100000000000000000000000000000000000AC
:10342000000000000000000000000000000000009C
:10343000000000000000000000000000000000008C
:10344000000000000000000000000000000000007C
:10345000000000000000000000000000000000006C
:10346000000000000000000000000000000000005C
:10347000000000000000000000000000000000004C
:1034800000000000000821B841F041F041F041F097
:1034900041F020900000000000000000000000004B
:1034A00000000000000000000000005821D041F0A2
:1034B00041F041F041F021D0004000000000000048
:1034C00000000000000000000000000000000000FC
:1034D00000000000000000000000000000000000EC
:1034E00000000000000000000000000000000000DC
:1034F00000000000000000000000000000000000CC
:1035000000000000000000000000000000000000BB
:1035100000000000000000000000000000000000AB
:10352000000000000000000000000000000000009B
:103530000000004821D041F041F041F041F021D09D
:103540000058000000000000000000000000000023
:103550000000000000000000209841F041F041F020
:1035600041F041F021C00008000000000000000010
:10357000000000000000000000000000000000004B
:10358000000000000000000000000000000000003B
:10359000000000000000000000000000000000002B
:1035A000000000000000000000000000000000001B
:1035B000000000000000000000000000000000000B
:1035C00000000000000000000000000000000000FB
:1035D00000000000000000000000000000000000EB
:1035E000208021D041F041F041F041F021C8001885
:1035F00000000000000000000000000000000000CB
:1036000000000000001021C041F041F041F041F005
:1036100041F02088000000000000000000000000D1
:10362000000000000000000000000000000000009A
:10363000000000000000000000000000000000008A
:10364000000000000000000000000000000000007A
:10365000000000000000000000000000000000006A
:10366000000000000000000000000000000000005A
:10367000000000000000000000000000000000004A
:10368000000000000000000000000000000021B861
:1036900041F041F041F041F041F020A8000000006D
:1036A000000000000000000000000000000000001A
:1036B0000000005821D041F041F041F041F021D00C
:1036C00000500000000000000000000000000000AA
:1036D00000000000000000000000000000000000EA
:1036E00000000000000000000000000000000000DA
:1036F00000000000000000000000000000000000CA
:1037000000000000000000000000000000000000B9
:1037100000000000000000000000000000000000A9
:103720000000000000000000000000000000000099
:1037300000000000000000000000003021C841F03F
:1037400041F041F041F021D0006000000000000095
:103750000000000000000000000000000000000069
:10376000209041F041F041F041F041F021C00008CB
:103770000000000000000000000000000000000049
:103780000000000000000000000000000000000039
:103790000000000000000000000000000000000029
:1037A0000000000000000000000000000000000019
:1037B0000000000000000000000000000000000009
:1037C00000000000000000000000000000000000F9
:1037D00000000000000000000000000000000000E9
:1037E0000000000000000000207821D041F041F0EE
:1037F00041F041F021D0002800000000000000004E
:10380000000000000000000000000000000821C8C7
:1038100041F041F041F041F041F0209800000000FB
:103820000000000000000000000000000000000098
:103830000000000000000000000000000000000088
:103840000000000000000000000000000000000078
:103850000000000000000000000000000000000068
:103860000000000000000000000000000000000058
:103870000000000000000000000000000000000048
:103880000000000000000000000000000000000038
:1038900000000000000020A841F041F041F041F09C
:1038A00041F020A80000000000000000000000001F
:1038B00000000000000000000000004021D041F0A6
:1038C00041F041F041F021D000580000000000001C
:1038D00000000000000000000000000000000000E8
:1038E00000000000000000000000000000000000D8
:1038F00000000000000000000000000000000000C8
:1039000000000000000000000000000000000000B7
:1039100000000000000000000000000000000000A7
:103920000000000000000000000000000000000097
:103930000000000000000000000000000000000087
:103940000000002821C841F041F041F041F021D0B1
:1039500020700000000000000000000000000000D7
:103960000000000000000000208021D041F041F064
:1039700041F041F021C800180000000000000000E4
:103980000000000000000000000000000000000037
:103990000000000000000000000000000000000027
:1039A0000000000000000000000000000000000017
:1039B0000000000000000000000000000000000007
:1039C00000000000000000000000000000000000F7
:1039D00000000000000000000000000000000000E7
:1039E00000000000000000000000000000000000D7
:1039F000206821D041F041F041F041F021D0003069
:103A000000000000000000000000000000000000B6
:103A100000000000000021B841F041F041F041F009
:103A200041F02098000000000000000000000000AD
:103A30000000000000000000000000000000000086
:103A40000000000000000000000000000000000076
:103A50000000000000000000000000000000000066
:103A60000000000000000000000000000000000056
:103A70000000000000000000000000000000000046
:103A80000000000000000000000000000000000036
:103A90000000000000000000000000000000209076
:103AA00041F041F041F041F041F020B00000000051
:103AB0000000000000000000000000000000000006
:103AC0000000003021D041F041F041F041F021D020
:103AD000006800000000000000000000000000007E
:103AE00000000000000000000000000000000000D6
:103AF00000000000000000000000000000000000C6
:103B000000000000000000000000000000000000B5
:103B100000000000000000000000000000000000A5
:103B20000000000000000000000000000000000095
:103B30000000000000000000000000000000000085
:103B400000000000000000000000207041F041F083
:103B500041F041F041F041F0208000000000000001
:103B60000000000000000000000000000000000055
:103B7000207021D041F041F041F041F021C80028EF
:103B80000000000000000000000000000000000035
:103B90000000000000000000000000000000000025
:103BA0000000000000000000000000000000000015
:103BB0000000000000000000000000000000000005
:103BC00000000000000000000000000000000000F5
:103BD00000000000000000000000000000000000E5
:103BE00000000000000000000000000000000000D5
:103BF00000000000004021D041F041F041F041F0D0
:103C000041F041F021D00040000000000000000021
:103C1000000000000000000000000000000020A8DC
:103C200041F041F041F041F041F020A800000000D7
:103C30000000000000000000000000000000000084
:103C40000000000000000000000000000000000074
:103C50000000000000000000000000000000000064
:103C60000000000000000000000000000000000054
:103C70000000000000000000000000000000000044
:103C80000000000000000000000000000000000034
:103C900000000000000000000000000000000030F4
:103CA00021C041F041F041F041F041F041F041F0DC
:103CB00041F021C0000800000000000000000000EA
:103CC00000000000000000000000002821C841F0B2
:103CD00041F041F041F021D02070000000000000D0
:103CE00000000000000000000000000000000000D4
:103CF00000000000000000000000000000000000C4
:103D000000000000000000000000000000000000B3
:103D100000000000000000000000000000000000A3
:103D20000000000000000000000000000000000093
:103D30000000000000000000000000000000000083
:103D40000000000000000000001021B841F041F028
:103D500041F041F041F041F041F041F041F041F0DB
:103D600020800000000000000000000000000000B3
:103D70000000000000000000006021D041F041F090
:103D800041F041F021C800300000000000000000B8
:103D90000000000000000000000000000000000023
:103DA0000000000000000000000000000000000013
:103DB0000000000000000000000000000000000003
:103DC00000000000000000000000000000000000F3
:103DD00000000000000000000000000000000000E3
:103DE00000000000000000000000000000000000D3
:103DF0000000000020A841F041F041F041F041F006
:103E000041F041F041F041F041F041F021D0005843
:103E100000000000000000000000000000000000A2
:103E200000000000000020A841F041F041F041F006
:103E300041F021B800000000000000000000000078
:103E40000000000000000000000000000000000072
:103E50000000000000000000000000000000000062
:103E60000000000000000000000000000000000052
:103E70000000000000000000000000000000000042
:103E80000000000000000000000000000000000032
:103E9000000000000000000000000000000020986A
:103EA00041F041F041F041F041F021D00050208834
:103EB00041F041F041F041F041F021C0001000001C
:103EC00000000000000000000000000000000000F2
:103ED0000000001821C041F041F041F041F041F0F4
:103EE0002080000000000000000000000000000032
:103EF00000000000000000000000000000000000C2
:103F000000000000000000000000000000000000B1
:103F100000000000000000000000000000000000A1
:103F20000000000000000000000000000000000091
:103F30000000000000000000000000000000000081
:103F40000000000000000000207821D041F041F086
:103F500041F041F021D000680000000821C041F08C
:103F600041F041F041F041F02098000000000000D5
:103F70000000000000000000000000000000000041
:103F8000006021D041F041F041F041F021D00048E3
:103F90000000000000000000000000000000000021
:103FA0000000000000000000000000000000000011
:103FB0000000000000000000000000000000000001
:103FC00000000000000000000000000000000000F1
:103FD00000000000000000000000000000000000E1
:103FE00000000000000000000000000000000000D1
:103FF0000000006021D041F041F041F041F021D0BB
:104000002088000000000000004821D041F041F06D
:1040100041F041F021D000580000000000000000F5
:1040200000000000000000000000000000002098D8
:1040300041F041F041F041F041F021B800080000AA
:104040000000000000000000000000000000000070
:104050000000000000000000000000000000000060
:104060000000000000000000000000000000000050
:104070000000000000000000000000000000000040
:104080000000000000000000000000000000000030
:10409000000000000000000000000000004821D0E7
:1040A00041F041F041F041F021D0209800000000A3
:1040B000000000000000208021D041F041F041F0DC
:1040C00041F021C0002000000000000000000000BE
:1040D00000000000000000000000001021C041F0BE
:1040E00041F041F041F041F0208800000000000064
:1040F00000000000000000000000000000000000C0
:1041000000000000000000000000000000000000AF
:10411000000000000000000000000000000000009F
:10412000000000000000000000000000000000008F
:10413000000000000000000000000000000000007F
:10414000000000000000002821C841F041F041F0CB
:1041500041F041F020A80000000000000000000035
:104160000000000021B841F041F041F041F041F081
:1041700020A000000000000000000000000000007F
:104180000000000000000000005021D041F041F08C
:1041900041F041F021D0005000000000000000007C
:1041A000000000000000000000000000000000000F
:1041B00000000000000000000000000000000000FF
:1041C00000000000000000000000000000000000EF
:1041D00000000000000000000000000000000000DF
:1041E00000000000000000000000000000000000CF
:1041F000001821C041F041F041F041F041F021B8F8
:104200000018000000000000000000000000000096
:10421000003021C841F041F041F041F021D0206848
:10422000000000000000000000000000000000008E
:10423000000000000000209041F041F041F041F00A
:1042400041F021C00010000000000000000000004C
:10425000000000000000000000000000000000005E
:10426000000000000000000000000000000000004E
:10427000000000000000000000000000000000003E
:10428000000000000000000000000000000000002E
:1042900000000000000000000000000020A841F025
:1042A00041F041F041F041F021C800280000000039
:1042B0000000000000000000000000000000207866
:1042C00021D041F041F041F041F021D00030000018
:1042D00000000000000000000000000000000000DE
:1042E0000000001021B841F041F041F041F041F0F0
:1042F00020A00000000000000000000000000000FE
:1043000000000000000000000000000000000000AD
:10431000000000000000000000000000000000009D
:10432000000000000000000000000000000000008D
:10433000000000000000000000000000000000007D
:10434000000000000000209021D041F041F041F039
:1043500041F021D0004800000000000000000000F3
:1043600000000000000000000000000020A841F054
:1043700041F041F041F041F020A8000000000000B1
:10438000000000000000000000000000000000002D
:10439000004821D041F041F041F041F021D00058D7
:1043A000000000000000000000000000000000000D
:1043B00000000000000000000000000000000000FD
:1043C00000000000000000000000000000000000ED
:1043D00000000000000000000000000000000000DD
:1043E00000000000000000000000000000000000CD
:1043F000208021D041F041F041F041F021D0006017
:1044000000000000000000000000000000000000AC
:104410000000000000000000003021C841F041F021
:1044200041F041F021D020780000000000000000A1
:1044300000000000000000000000000000002080DC
:1044400041F041F041F041F041F021D00020000066
:10445000000000000000000000000000000000005C
:10446000000000000000000000000000000000004C
:10447000000000000000000000000000000000003C
:10448000000000000000000000000000000000002C
:1044900000000000000000000000006021D041F09A
:1044A00041F041F041F021D02078000000000000F0
:1044B00000000000000000000000000000000000FC
:1044C000000000000000006021D041F041F041F008
:1044D00041F021C800300000000000000000000092
:1044E00000000000000000000000000020B041F0CB
:1044F00041F041F041F041F020A000000000000038
:1045000000000000000000000000000000000000AB
:10451000000000000000000000000000000000009B
:10452000000000000000000000000000000000008B
:10453000000000000000000000000000000000007B
:1045400000000000005021D041F041F041F041F066
:1045500041F020900000000000000000000000007A
:10456000000000000000000000000000000000004B
:104570000000000020B041F041F041F041F041F076
:1045800021C000000000000000000000000000004A
:104590000000000000000000003821C841F041F098
:1045A00041F041F021D02070000000000000000028
:1045B00000000000000000000000000000000000FB
:1045C00000000000000000000000000000000000EB
:1045D00000000000000000000000000000000000DB
:1045E00000000000000000000000000000000028A3
:1045F00021C841F041F041F041F041F020A8000015
:1046000000000000000000000000000000000000AA
:10461000000000000000000000000000000000009A
:10462000001821C041F041F041F041F041F02088F4
:10463000000000000000000000000000000000007A
:10464000000000000000207021D041F041F041F056
:1046500041F021C800300000000000000000000010
:10466000000000000000000000000000000000004A
:10467000000000000000000000000000000000003A
:10468000000000000000000000000000000000002A
:104690000000000000000000001021B841F041F0CF
:1046A00041F041F041F021C8001800000000000076
:1046B00000000000000000000000000000000000FA
:1046C0000000000000000000000000000000005892
:1046D00021D041F041F041F041F021D000480000EC
:1046E00000000000000000000000000000000000CA
:1046F0000000000020A841F041F041F041F041F0FD
:1047000020B00000000000000000000000000000D9
:104710000000000000000000000000000000000099
:104720000000000000000000000000000000000089
:104730000000000000000000000000000000000079
:104740000000000820B041F041F041F041F041F09C
:1047500021C8003000000000000000000000000040
:104760000000000000000000000000000000000049
:10477000000000000000000000000000209841F050
:1047800041F041F041F041F021C00008000000007C
:104790000000000000000000000000000000000019
:1047A000002821C841F041F041F041F021D02070B3
:1047B00000000000000000000000000000000000F9
:1047C00000000000000000000000000000000000E9
:1047D00000000000000000000000000000000000D9
:1047E0000000000000000000000000000000209811
:1047F00041F041F041F041F041F021D0004800008B
:1048000000000000000000000000000000000000A8
:104810000000000000000000000000000000000098
:104820000000000000000000001021C041F041F035
:1048300041F041F041F02090000000000000000035
:1048400000000000000000000000000000002068E0
:1048500021D041F041F041F041F021D0003800007A
:104860000000000000000000000000000000000048
:104870000000000000000000000000000000000038
:104880000000000000000000000000000000000028
:104890000000000000000000209021D041F041F015
:1048A00041F041F021D0005800000000000000005D
:1048B00000000000000000000000000000000000F8
:1048C00000000000000000000000000000000000E8
:1048D000000000000000005021D041F041F041F004
:1048E00041F021D000500000000000000000000056
:1048F00000000000000000000000000020A041F0C7
:1049000041F041F041F041F021C000000000000002
:104910000000000000000000000000000000000097
:104920000000000000000000000000000000000087
:104930000000000000000000000000000000000077
:104940000000006821D041F041F041F041F021D059
:1049500020780000000000000000000000000000BF
:104960000000000000000000000000000000000047
:104970000000000000000000000000000000000037
:1049800000000000208041F041F041F041F041F092
:1049900021C0001000000000000000000000000026
:1049A0000000000000000000001821C041F041F0AC
:1049B00041F041F021D02080000000000000000004
:1049C00000000000000000000000000000000000E7
:1049D00000000000000000000000000000000000D7
:1049E000000000000000000000000000004821D08E
:1049F00041F041F041F041F021D020A00000000042
:104A000000000000000000000000000000000000A6
:104A10000000000000000000000000000000000096
:104A20000000000000000000000000000000000086
:104A3000000821B841F041F041F041F041F020A0E0
:104A40000000000000000000000000000000000066
:104A5000000000000000005821D041F041F041F07A
:104A600041F021D0003800000000000000000000EC
:104A70000000000000000000000000000000000036
:104A80000000000000000000000000000000000026
:104A9000000000000000003021C841F041F041F06A
:104AA00041F041F020A000000000000000000000E4
:104AB00000000000000000000000000000000000F6
:104AC00000000000000000000000000000000000E6
:104AD000000000000000000000000000000000389E
:104AE00021D041F041F041F041F021D000600000C0
:104AF00000000000000000000000000000000000B6
:104B000000000000209841F041F041F041F041F0F8
:104B100021B80008000000000000000000000000B4
:104B20000000000000000000000000000000000085
:104B30000000000000000000000000000000000075
:104B4000001821C041F041F041F041F041F021B89E
:104B50000010000000000000000000000000000045
:104B60000000000000000000000000000000000045
:104B70000000000000000000000000000000000035
:104B8000000000000000000000000000208841F04C
:104B900041F041F041F041F021D000180000000048
:104BA0000000000000000000000000000000000005
:104BB000001021C841F041F041F041F041F020984F
:104BC00000000000000000000000000000000000E5
:104BD00000000000000000000000000000000000D5
:104BE00000000000000000000000000820B041F0BC
:104BF00041F041F041F041F021C8002800000000E0
:104C000000000000000000000000000000000000A4
:104C10000000000000000000000000000000000094
:104C20000000000000000000000000000000000084
:104C30000000000000000000000020B041F041F042
:104C400041F041F041F020A8000000000000000009
:104C5000000000000000000000000000000000480C
:104C600021D041F041F041F041F021D00048000056
:104C70000000000000000000000000000000000034
:104C80000000000000000000000000000000000024
:104C9000000000000000209841F041F041F041F098
:104CA00041F021D0004000000000000000000000A2
:104CB00000000000000000000000000000000000F4
:104CC00000000000000000000000000000000000E4
:104CD00000000000000000000000000000000000D4
:104CE000000000000000003821D041F041F041F008
:104CF00041F021D020700000000000000000000002
:104D0000000000000000000000000000209041F0C2
:104D100041F041F041F041F021C8001000000000D6
:104D20000000000000000000000000000000000083
:104D30000000000000000000000000000000000073
:104D4000208021D041F041F041F041F021D0206895
:104D50000000000000000000000000000000000053
:104D60000000000000000000000000000000000043
:104D70000000000000000000000000000000000033
:104D80000000000000000000000000000000000023
:104D900000000000207021D041F041F041F041F0CE
:104DA00021D00028000000000000000000000000EA
:104DB0000000000000000000000821C041F041F0A8
:104DC00041F041F041F02098000000000000000098
:104DD00000000000000000000000000000000000D3
:104DE00000000000000000000000206821D041F019
:104DF00041F041F041F021D020800000000000008F
:104E000000000000000000000000000000000000A2
:104E10000000000000000000000000000000000092
:104E20000000000000000000000000000000000082
:104E30000000000000000000000000000000000072
:104E4000000020A841F041F041F041F041F020A8DD
:104E50000000000000000000000000000000000052
:104E6000000000000000003821D041F041F041F086
:104E700041F021D0006000000000000000000000B0
:104E80000000000000000000000000000000000022
:104E900000000000005021D041F041F041F041F00D
:104EA00021D0209000000000000000000000000061
:104EB00000000000000000000000000000000000F2
:104EC00000000000000000000000000000000000E2
:104ED00000000000000000000000000000000000D2
:104EE000000000000000000000000000000000289A
:104EF00021C841F041F041F041F021D02070000084
:104F000000000000000000000000000000000000A1
:104F100000000000208021D041F041F041F041F03C
:104F200021C8002000000000000000000000000078
:104F30000000000000000000000000000000003041
:104F400021D041F041F041F041F041F020A00000BB
:104F50000000000000000000000000000000000051
:104F60000000000000000000000000000000000041
:104F70000000000000000000000000000000000031
:104F80000000000000000000000000000000000021
:104F9000000000000000000000000000005821D0C8
:104FA00041F041F041F041F021C800300000000024
:104FB00000000000000000000000000000000000F1
:104FC000000020B041F041F041F041F041F020A05C
:104FD00000000000000000000000000000000000D1
:104FE0000000000000000000001821C041F041F066
:104FF00041F041F041F021C0000800000000000035
:1050000000000000000000000000000000000000A0
:105010000000000000000000000000000000000090
:105020000000000000000000000000000000000080
:105030000000000000000000000000000000000070
:105040000000000000000000000020A041F041F03E
:1050500041F041F041F021C00000000000000000DC
:105060000000000000000000000000000000003010
:1050700021C841F041F041F041F021D00060000032
:105080000000000000000000000000000000000020
:105090000000000020B041F041F041F041F041F04B
:1050A00021C80028000000000000000000000000EF
:1050B00000000000000000000000000000000000F0
:1050C00000000000000000000000000000000000E0
:1050D00000000000000000000000000000000000D0
:1050E00000000000000000000000000000000000C0
:1050F000000000000000001821C841F041F041F01C
:1051000041F021D0208800000000000000000000D5
:10511000000000000000000000000000006021D03E
:1051200041F041F041F041F021C8002800000000AA
:1051300000000000000000000000000000002098B7
:1051400041F041F041F041F041F021C80040000041
:10515000000000000000000000000000000000004F
:10516000000000000000000000000000000000003F
:10517000000000000000000000000000000000002F
:10518000000000000000000000000000000000001F
:10519000000000000000000000000000000000000F
:1051A00000000000005821D041F041F041F041F0F2
:1051B00021D00048000000000000000000000000B6
:1051C0000000000000000000000020B041F041F0AD
:1051D00041F041F041F020A8000000000000000074
:1051E0000000000000000000209021D041F041F0BC
:1051F00041F041F021D0005000000000000000000C
:10520000000000000000000000000000000000009E
:10521000000000000000000000000000000000008E
:10522000000000000000000000000000000000007E
:10523000000000000000000000000000000000006E
:10524000000000000000000000000000000000005E
:105250000000209041F041F041F041F041F021C0C8
:1052600020902090209020902090209020882090C6
:1052700020902090208021B841F041F041F041F091
:1052800041F041F02070000000000000000000002C
:105290000000206821D041F041F041F041F021D0E0
:1052A000207000000000000000000000000000006E
:1052B00000000000000000000000000000000000EE
:1052C00000000000000000000000000000000000DE
:1052D00000000000000000000000000000000000CE
:1052E00000000000000000000000000000000000BE
:1052F000000000000000000000000000000000109E
:1053000021C841F041F041F041F041F041F041F05D
:1053100041F041F041F041F041F041F041F041F005
:1053200041F041F041F041F041F041F041F041F0F5
:1053300021D000380000000000000000005021D003
:1053400041F041F041F041F021D0209000000000F8
:10535000000000000000000000000000000000004D
:10536000000000000000000000000000000000003D
:10537000000000000000000000000000000000002D
:10538000000000000000000000000000000000001D
:10539000000000000000000000000000000000000D
:1053A000000000000000000000000000004821D0C4
:1053B00041F041F041F041F041F041F041F041F065
:1053C00041F041F041F041F041F041F041F041F055
:1053D00041F041F041F041F041F041F041F020B0A6
:1053E000000000000000003021C841F041F041F011
:1053F00041F041F020A80000000000000000000083
:10540000000000000000000000000000000000009C
:10541000000000000000000000000000000000008C
:10542000000000000000000000000000000000007C
:10543000000000000000000000000000000000006C
:10544000000000000000000000000000000000005C
:1054500000000000000000000000208841F041F042
:1054600041F041F041F041F041F041F041F041F0B4
:1054700041F041F041F041F041F041F041F041F0A4
:1054800041F041F041F041F041F041F0208800004E
:10549000002021C841F041F041F041F041F021B835
:1054A00000080000000000000000000000000000F4
:1054B00000000000000000000000000000000000EC
:1054C00000000000000000000000000000000000DC
:1054D00000000000000000000000000000000000CC
:1054E00000000000000000000000000000000000BC
:1054F00000000000000000000000000000000000AC
:10550000000000000000000021C041F041F041F027
:1055100041F041F041F041F041F041F041F041F003
:1055200041F041F041F041F041F041F041F041F0F3
:1055300041F041F041F041F021D0005020A820B0CE
:1055400020B020A820B020B020A800280000000033
:10555000000000000000000000000000000000004B
:10556000000000000000000000000000000000003B
:10557000000000000000000000000000000000002B
:10558000000000000000000000000000000000001B
:10559000000000000000000000000000000000000B
:1055A00000000000000000000000000000000000FB
:1055B00000000000003821B820A820A820A820A8BA
:1055C00020A820A820A820A820A820A820A820A89B
:1055D00020A820A820A820A820A820A820A820A88B
:1055E00020B020A820A820A84C0000005A000000ED
:1055F00000000000000000000000000000000000AB
:10560000000000000000000000000000000000009A
:10561000000000000000000000000200050008007B
:105620000B000C000E000F001200160017001700F0
:1056300017001700170017001700170017001700B2
:1056400017001700170017001700160012000F00B0
:105650000E000C000B000800050002000000000016
:10566000000000000000000000000000000000003A
:10567000000000000000000000000000000000002A
:10568000000000000000000000000000000000001A
:10569000000000000000000000000000000000000A
:1056A00000000000000000000000000000000100F9
:1056B0000200040007000A000C000E000F0010009A
:1056C000140018001800180018001800180018001E
:1056D000180018001800180018001800180018000A
:1056E00018001800140010000F000E000D000A0032
:1056F000070003000100010000000000000000009E
:105700000000000000000000000000000000000099
:105710000000000000000000000000000000000089
:105720000000000000000000000000000000000079
:105730000000000000000000000000000000000069
:1057400000000100040007000A000D00120015000F
:105750001500160016001700180018001800180091
:105760001800180018001800180018001800180079
:10577000180018001800180018001800180017006A
:10578000170016001500150011000C000900070095
:105790000300000000000000000000000000000006
:1057A00000000000000000000000000000000000F9
:1057B00000000000000000000000000000000000E9
:1057C00000000000000000000000000000000000D9
:1057D0000000000000000200040007000B001000A1
:1057E0001300150018001800180018001800180001
:1057F00018001800180018001800180018001800E9
:1058000018001800180018001800180018001800D8
:1058100018001800180018001800180018001800C8
:105820001700140012000F000A0006000300010018
:105830000000000000000000000000000000000068
:105840000000000000000000000000000000000058
:105850000000000000000000000000000000000048
:10586000000000000000000000000000030008002D
:105870000D00100013001700180018001800180081
:105880001800180018001800180018001800180058
:105890001800180018001800180018001800180048
:1058A0001800180018001800180018001800180038
:1058B000180018001800180018001800180016002A
:1058C00012000F000B0005000100000000000000A6
:1058D00000000000000000000000000000000000C8
:1058E00000000000000000000000000000000000B8
:1058F00000000000000000000000000000000000A8
:10590000010006000B00100015001600170018001B
:1059100018001800180018001800180018001800C7
:1059200018001800180018001700150013001100C7
:1059300010001000110013001500160017001800C9
:105940001800180018001800180018001800180097
:1059500018001800180018001700160014000E0098
:10596000090004000000000000000000000000002A
:105970000000000000000000000000000000000027
:105980000000000000000000000000000000000017
:10599000000000000000020007000D0012001600C9
:1059A0001800180018001800180018001800180037
:1059B000180018001800180018001800170015002B
:1059C00010000C000A0008000700070008000A0089
:1059D0000C000F0013001700180018001800180022
:1059E00018001800180018001800180018001800F7
:1059F000180018001800150010000B000500010029
:105A00000000000000000000000000000000000096
:105A10000000000000000000000000000000000086
:105A200000000000000000000000000003000A0069
:105A30000F001200160018001800180018001800B7
:105A40001800180018001800180018001800180096
:105A50001700150012000E000700030001000100EE
:105A60000100010001000100020006000C0012000C
:105A70001700180018001800180018001800180067
:105A80001800180018001800180018001800180056
:105A9000150011000D0007000000000000000000CC
:105AA00000000000000000000000000000000000F6
:105AB00000000000000000000000000000000000E6
:105AC000000004000B001300150016001800180059
:105AD0001800180018001800180018001800180006
