:020000040800F2
:1000000008060020950100089D0100089F010008D6
:10001000A1010008A3010008A501000800000000DC
:10002000000000000000000000000000A701000820
:10003000A901000800000000AB010008AD010008A4
:10004000AF010008AF010008AF010008AF010008D0
:10005000AF010008AF010008AF010008AF010008C0
:10006000AF010008AF010008AF010008AF010008B0
:10007000AF010008AF010008AF010008AF010008A0
:10008000AF010008AF010008AF0100080000000048
:10009000000000000000000000000000AF010008A8
:1000A000AF010008AF010008AF010008AF01000870
:1000B000AF010008AF010008AF010008AF01000860
:1000C000AF010008AF010008AF010008AF01000850
:1000D000AF010008AF010008AF01000800000000F8
:1000E000AF010008AF010008AF01000800000000E8
:1000F000000000000000000000000000AF01000848
:1001000000000000AF010008AF010008AF010008C7
:1001100000000000000000000000000000000000DF
:10012000AF010008AF010008AF010008AF010008EF
:10013000AF01000800000000000000000000000007
:10014000000000000000000000000000AF010008F7
:10015000AF010008AF010008AF010008AF010008BF
:10016000AF010008AF01000800000000000000001F
:10017000000000000000000000000000000000007F
:1001800000000000AF0100080000000000000000B7
:10019000AF0100080948804709480047FEE7FEE72D
:1001A000FEE7FEE7FEE7FEE7FEE7FEE7FEE7FEE727
:1001B00004480549054A064B704700000D03000836
:1001C0002103000808000020080600200802002083
:1001D00008020020704770477047000086B0002179
:1001E00005910491022003900291019043F60800CA
:1001F000C4F20200006800F00C0005900598009021
:1002000040B1FFE7009804280ED0FFE700980828C7
:1002100014D059E040F20001C2F2000142F2004065
:10022000C0F2F400086059E040F20001C2F200019F
:1002300047F64000C0F27D1008604FE043F604002E
:10024000C4F202000168C1F380510291006800F01D
:100250003F000190029888B1FFE7019947F64000FE
:10026000C0F27D10B0FBF1F043F60401C4F20201CC
:100270000968C1F388114843049010E0019942F2E3
:100280000040C0F2F400B0FBF1F043F60401C4F208
:1002900002010968C1F3881148430490FFE743F65F
:1002A0000400C4F20200006800F44031022000EBB8
:1002B000D130039004980399B0FBF1F040F20001B3
:1002C000C2F20001086009E040F20001C2F2000140
:1002D00042F20040C0F2F4000860FFE743F6080075
:1002E000C4F202000068C0B2010941F25C10C0F61D
:1002F0000000405C0590059A40F20001C2F2000146
:100300000868D040086006B0704700004EF688517B
:10031000CEF20001086840F47000086070470000E9
:1003200000F0E1FD4FF000014FF4AF724FF0000319
:100330004FF4FA744CF67E7500F0B8FE4FF050069C
:100340004FEA862646F050064FF064074FF0050846
:100350004FF4A0794FEA892949F4A0794FF0640A53
:100360004FF0050B00F016F84FF09C014FF0BE0265
:100370004E4B00F0BCFE4FF082014FF0C4024C4BDC
:1003800000F0B5FE00F0C2FB00F072FC00F0DCFEF5
:10039000F8E7FEE73FB54FF000014FF4AF724FF0C2
:1003A00000034FF4FA744CF67E7500F07FFE4FF0B8
:1003B00004004FF482714FF000023E4B00F097FEB4
:1003C00002F132023C4B00F092FE02F13202401E7A
:1003D000F3D14FF4D772384B00F089FE4FF4C87256
:1003E000344B00F084FE4FF000014FF00002334B1D
:1003F00000F07DFE4FF000014FF4D772304B00F05B
:1004000076FE4FF008004FF000014FF028022D4B10
:1004100000F06DFE02F13202401EF8D14FF03201C1
:100420004FF05002284B00F062FE4FF032014FF4C3
:10043000A072264B00F05BFE4FF0EB014FF005027F
:10044000234B00F054FE4FF0EB0140F28112214BA0
:1004500000F04DFE4FF0D2014FF005021E4B00F0B0
:1004600046FE4FF0D2014FF01E021B4B00F03FFE44
:100470004FF0D2014FF03702174B00F038FE4FF02B
:10048000D20140F29512144B00F031FE4FF0D20130
:100490004FF4D772104B00F02AFE4FF0D20140F219
:1004A000C7120D4B00F023FE3FBD17E094C30308B5
:1004B000FCE50308C46600084C4F000874110008EE
:1004C0009438000804250008CCD20008740B0208F8
:1004D0003C7E0008948A0308244C00088FB507F07E
:1004E0007F00642807D14FF0EB014FF00502974BD6
:1004F00000F0FDFD2EE0502807D14FF0EB014FF04A
:100500000502934B00F0F3FD24E03C2807D14FF0A7
:10051000EB014FF005028F4B00F0E9FD1AE02828AF
:1005200007D14FF0EB014FF005028B4B00F0DFFDE0
:1005300010E0142807D14FF0EB014FF00502874B74
:1005400000F0D5FD06E04FF0EB014FF00502844BC3
:1005500000F0CDFD8FBD0FB50AF07F00642807D1F4
:100560004FF0EB0140F281127E4B00F0C0FD2EE017
:10057000502807D14FF0EB0140F281127A4B00F086
:10058000B6FD24E03C2807D14FF0EB0140F2811288
:10059000764B00F0ACFD1AE0282807D14FF0EB01B4
:1005A00040F28112724B00F0A2FD10E0142807D136
:1005B0004FF0EB0140F281126E4B00F098FD06E027
:1005C0004FF0EB0140F281126B4B00F090FD0FBD3C
:1005D000BFB54FF0030000EAD710032829D0022846
:1005E0000CD14FF0D2014FF0E6024FF037034FF03D
:1005F0004B044CF67E7500F059FD1AE001280CD131
:100600004FF0D2014FF0E6024FF01E034FF03204DC
:100610004CF67E7500F04AFD0BE04FF0D2014FF032
:10062000E6024FF005034FF019044CF67E7500F01A
:100630003DFDBFBD2DE93F444FF0030000EADA1055
:10064000032829D002280CD14FF0D2014FF0E60246
:1006500040F2951340F2A9144CF67E7500F026FD89
:100660001AE001280CD14FF0D2014FF0E6024FF40E
:10067000D7734FF4E1744CF67E7500F017FD0BE074
:100680004FF0D2014FF0E60240F2C71340F2DB1404
:100690004CF67E7500F00AFDBDE83F842DE9FE5F53
:1006A0004FF032014FF0C8024FF000034FF4FA74DC
:1006B0004CF67E7500F0FAFC4FF032014FF050021C
:1006C0002E4B00F014FD4FF032014FF4A0722C4B72
:1006D00000F00DFD4FF0EB014FF005021B4B00F059
:1006E00006FD4FF0EB0140F281121E4B00F0FFFCC3
:1006F0004FF0D2014FF00502224B00F0F8FC4FF012
:10070000D2014FF01E021F4B00F0F1FC4FF0D2015E
:100710004FF037021B4B00F0EAFC4FF0D20140F2E1
:100720009512184B00F0E3FC4FF0D2014FF4D77252
:10073000144B00F0DCFC4FF0D20140F2C712114B19
:1007400000F0D5FCBDE8FE5F70471DE03C7E000870
:10075000548C00086C9A000884A800089CB6000815
:10076000B4C40008948A03087C7C0308646E030800
:100770004C600308345203081C440308CCD2000820
:10078000740B0208244C00082DE9FE5F40F2FF1AAA
:100790004FF032014FF096020AEA962303F150041B
:1007A0004CF67E7500F082FC4FF0320106EA0A0238
:1007B0007A4B00F09CFC00F0C7FC00F0C5FC4FF049
:1007C000320106EA0A02764B00F091FCBDE8FE5FBA
:1007D00070472DE9FE5F40F2FF1A4FF032014FF0F3
:1007E00096020AEA992303F150044CF67E7500F054
:1007F0005DFC4FF0320109EA0A026A4B00F077FC17
:1008000000F0A2FC00F0A0FC4FF0320109EA0A025D
:10081000654B00F06CFCBDE8FE5F70472DE9FE5FA4
:1008200040F2FF1A4FF032014FF096020AEA962387
:1008300003F150044CF67E7500F038FC4FF03201A5
:1008400006EA0A02594B00F052FC00F07DFC00F071
:100850007BFC00F079FC4FF0320106EA0A02544BAF
:1008600000F045FC00F070FC00F06EFC00F06CFC49
:100870004FF0320106EA0A02494B00F038FCBDE8AD
:10088000FE5F70472DE9FE5F40F2FF1A4FF0320124
:100890004FF096020AEA992303F150044CF67E7554
:1008A00000F004FC4FF0320109EA0A02414B00F06B
:1008B0001EFC00F049FC00F047FC00F045FC4FF046
:1008C000320109EA0A023C4B00F011FC00F03CFC4A
:1008D00000F03AFC00F038FC4FF0320109EA0A025D
:1008E000314B00F004FCBDE8FE5F70472DE9FE5F70
:1008F00040F2FF1A4FF032014FF096020AEA9623B7
:1009000003F150044CF67E7500F0D0FB4FF032013D
:1009100006EA0A02294B00F0EAFB00F015FC00F0A1
:1009200013FC00F011FC00F00FFC00F00DFC4FF088
:10093000320106EA0A021A4B00F0D9FBBDE8FE5F5D
:1009400070472DE9FE5F40F2FF1A4FF032014FF081
:1009500096020AEA992303F150044CF67E7500F0E2
:10096000A5FB4FF0320109EA0A02154B00F0BFFB6C
:1009700000F0EAFB00F0E8FB00F0E6FB00F0E4FB2F
:1009800000F0E2FB4FF0320109EA0A02064B00F0E8
:10099000AEFBBDE8FE5F704714E00000ECCC010840
:1009A000CCD2000894050308740B0208DC4F010840
:1009B0005411010884880208FC490208648E010869
:1009C0000CC702082DE9FE5F40F2FF1A4FF032011A
:1009D0004FF096020AEA992303F150044CF67E7513
:1009E00000F064FB4FF032014FF096020AEA9623C2
:1009F00003F150044CF67E7500F058FB4FF03201C5
:100A000009EA0A023A4B00F072FB4FF0320106EAA3
:100A10000A02384B00F06BFB4FF09B014FF08C0249
:100A2000354B00F064FBBDE8FE5F70472DE9FE5FCB
:100A300040F2FF1A4FF032014FF096020AEA992372
:100A400003F150044CF67E7500F030FB4FF032019C
:100A50004FF096020AEA962303F150044CF67E7595
:100A600000F024FB4FF0320106EA0A02234B00F0AB
:100A70003EFB4FF0320109EA0A02214B00F037FB3E
:100A80004FF09B014FF08C021B4B00F030FBBDE898
:100A9000FE5F70472DE9FE5F40F2FF1A4FF0320112
:100AA0004FF096020AEA992303F150044CF67E7542
:100AB00000F0FCFA4FF032014FF096020AEA96235A
:100AC00003F150044CF67E7500F0F0FA4FF032015D
:100AD00006EA0A020B4B00F00AFB4FF0320109EA6A
:100AE0000A02094B00F003FBBDE8FE5F70470DE012
:100AF0000CC70208DC4F0108AC980308648E01089B
:100B000084880208CCD20008740B02082DE9BF5477
:100B10005548016804B44FF000025348D0F800C0B3
:100B2000614504D102F10102052AF6DB03E06146CA
:100B30004FF00002F1E704BC40F2FF1C06EA0C048F
:100B40004FEA862607F4C0724FEAD212002A22D05A
:100B50000AF4C0724FEAD212002A1CD040F2FF1CE5
:100B600001F4A073B3F5807F0AD109EA0C0504F102
:100B70001E0404F15002AA420DDBA5F151040AE063
:100B800001F4A073402B06D1A4F11E04102C02DC4A
:100B90004FF01104FFE701F08003802B08D108F02B
:100BA0003803002B02D0A8F1080801E046F40076D3
:100BB00046EA04062D4A06EA02034FEA93239C42C2
:100BC00001D0FFF7E1FD09EA0C054FEA892907F496
:100BD000C0724FEAD212002A21D00AF4C0724FEA42
:100BE000D212002A1BD001F00303022B07D105F11A
:100BF0001E05B5F5C07F12DB40F27F150FE001F056
:100C00000303012B0BD106EA0C04A5F11E0504F128
:100C10005002954203DC02F101021546FFE701F0A4
:100C20001003102B08D10BF03803002B02D0ABF1CE
:100C3000080B01E049F4007949EA05090B4A09EA81
:100C400002034FEA93239D4201D0FFF7C2FD00F05B
:100C500003F8BDE8BF5470472DE9FF5F00F074FA58
:100C6000BDE8FF5F704703E01004024000FC07008E
:100C70002DE93F5007F4C074002C04D00AF4C0746E
:100C8000002C00D00CE04FF4007009EA0004002CA6
:100C900000F3138106EA0004002C00F30E811FE12B
:100CA00007F07F000AF07F01884200DC04E000F0DA
:100CB0007DF800F006F813E100F003F800F076F894
:100CC0000EE12DE93F504FF4007006EA0004002CBD
:100CD0003AD04FF0380008EA0004002C34D14FF02D
:100CE000070008EA0004002C5BD0A8F10108FFF718
:100CF00095FD40F2FF1006EA000109EA000201F149
:100D00005A039A4220DC40F2FF1009EA000202F185
:100D10000F02B2F5C07F01DD4FF4C0724FEA89299E
:100D20005FF8B8C009EA0C0949EA02094FF03D0B27
:100D30004FF07F000AEA0004142C08DDAAF1140A1F
:100D4000FFF709FCFFF7FDFDBDE83F5070470AF4CF
:100D5000C07AFFF700FCFFF7F4FD4FF4C0700AEA19
:100D60000004A4F180042AF4C07A4AEA040AFFF7D6
:100D700061FC002C00F08F804FEA892949F4A079AA
:100D80004AF0640A4FF0050BFFF7E5FB4FEA8626B1
:100D900046F050064FF00508FFF77CFEBDE83F50D7
:100DA0009EE04FF03D0826F40076CDE72DE93F5058
:100DB0004FF4007009EA0004002C3BD04FF03800DB
:100DC0000BEA0004002C35D14FF007000BEA0004B9
:100DD000002C5BD0ABF1010BFFF754FD40F2FF108C
:100DE00006EA000101F1500109EA0002A2F10A033A
:100DF00099421FDB40F2FF1006EA0001A1F10F014A
:100E0000102901DA4FF010014FEA86265FF8A4C1DD
:100E100006EA0C0646EA01064FF03D084FF07F0057
:100E200007EA0004142C08DDA7F11407FFF756FBAE
:100E3000FFF75CFDBDE83F50704707F4C077FFF750
:100E40004DFBFFF753FD4FF4C07007EA0004A4F117
:100E5000800427F4C07747EA0407FFF7B9FB002CAA
:100E600022D04FEA892949F4A0794FF0050B4FEAC7
:100E7000862646F0500647F064074FF00508FFF756
:100E80002DFBFFF707FEBDE83F5029E04FF03D0B7B
:100E900029F40079CEE74FF005084FF0050BFFF776
:100EA00091FDBDE83F501BE04FF005084FF0050BEA
:100EB000FFF7BCFDBDE83F5012E04FEA862646F042
:100EC00050064FF4F2774FF005084FEA892949F4AC
:100ED000A0794FF4F27A4FF0050BFFF7DFFBFFE745
:100EE000BDE83F50704700B51048016841F003016C
:100EF00001600F484FF0553101600E484FF0FF314F
:100F000001600D484FF0000101600C484FF0553171
:100F100001600B484FF0AA31016000F051F85DF814
:100F200004EB70470EE0000000FC07003038024080
:100F30000000024008000240000402400804024091
:100F40000C04024006B57F490A6822F400420A6098
:100F500022F480520A6042F480620A6022F0FF02AA
:100F600000F0FF0042EA00020A6022F400620A6018
:100F700042F400620A6042F400420A60BDE80640A2
:100F8000704706B56F490A6822F400420A6042F4CD
:100F900080520A6042F480620A6022F0FF0200F090
:100FA000FF0042EA00020A6022F400620A6042F492
:100FB00000620A6042F400420A60BDE806407047E1
:100FC00007B560490A6842F480720A6000F0BCF814
:100FD00022F480720A6000F0B7F842F480720A606E
:100FE00000F0B2F842F400420A6042F4006242F4B7
:100FF00080620A6022F400420A604FF0C500FFF7E9
:10100000A1FF4FF05400FFF7BCFF4FF00000FFF7C7
:10101000B8FF4FF03A00FFF795FF4FF05500FFF78C
:10102000B0FF4FF03600FFF78DFF4FF04800FFF79D
:10103000A8FF4FF01100FFF785FF00F085F84FF093
:101040002900FFF77FFF4FF02000FFF77BFFBDE88F
:10105000074070471FB54FF02A00FFF773FF08469F
:101060004FEA1020FFF78DFF0846FFF78AFF104672
:101070004FEA1020FFF785FF1046FFF782FF4FF081
:101080002B00FFF75FFF18464FEA1020FFF779FFAC
:101090001846FFF776FF20464FEA1020FFF771FF52
:1010A0002046FFF76EFFBDE81F4070472DE9FF4166
:1010B000FFF7D0FF4FF02C00FFF744FF4FEA152653
:1010C00005F0FF05A2EB010707F10107A4EB0308F8
:1010D00008F1010807FB08F73046FFF752FF2846E2
:1010E000FFF74FFF7F1EF7D1BDE8FF4170472DE9A5
:1010F000FF411D4655F8046B55F8047B06FB07F8C5
:10110000134601EB0602A2F1010203EB0704A4F16E
:101110000104FFF79FFF4FF02C00FFF713FF35F896
:10112000020B4FEA102100F0FF020846FFF729FFEB
:101130001046FFF726FFB8F10108F0DCBDE8FF41DB
:10114000704701E01400024001B50348401EFDD184
:10115000BDE8014070470000048601000000000067
:101160000000000001020304060708090000000057
:101170000102030432000000320000007ECF7ECF67
:101180007ECF7ECF7ECF7ECF7ECF7ECF7ECF7ECFF7
:101190007ECF7ECF7ECF7ECF7ECF7ECF7ECF7ECFE7
:1011A0007ECF7ECF7ECF7ECF7ECF7ECF7ECF7ECFD7
:1011B0007ECF7ECF7ECF7ECF7ECF7ECF7ECF7ECFC7
:1011C0007ECF7ECF7ECF7ECF7ECF7ECF7ECF7ECFB7
:1011D0007ECF7ECF7ECF7ECF7ECF7ECF7ECF7ECFA7
:1011E0007ECF7ECF7ECF7ECF7ECF7ECF7ECF7ECF97
:1011F0007ECF7ECF7ECF7ECF7ECF7ECF7ECF7ECF87
:101200007ECF7ECF7ECF7ECF7ECF7ECF7ECF7ECF76
:101210007ECF7ECF7ECF7ECF7ECF7ECF7ECF7ECF66
:101220007ECF7ECF7ECF7ECF7ECF7ECF7ECF7ECF56
:101230007ECF7ECF7ECF7ECF7ECF7ECF7ECF7ECF46
:101240007ECF7ECF7ECF7ECF7ECF7ECF7ECF7ECF36
:101250007ECF7ECF7ECF7ECF7ECF7ECF7ECF7ECF26
:101260007ECF7ECF7ECF7ECF7ECF7ECF7ECF7ECF16
:101270007ECF7ECF7ECF7ECF7ECF7ECF7ECF7ECF06
:101280007ECF7ECF7ECF7ECF7ECF7ECF7ECF7ECFF6
:101290007ECF7ECF7ECF7ECF7ECF7ECF7ECF7ECFE6
:1012A0007ECF7ECF7ECF7ECF7ECF7ECF7ECF7ECFD6
:1012B0007ECF7ECF7ECF7ECF7ECF7ECF7ECF7ECFC6
:1012C0007ECF7ECF7ECF7ECF7ECF7ECF7ECF7ECFB6
:1012D0007ECF7ECF7ECF7ECF7ECF7ECF7ECF7ECFA6
:1012E0007ECF7ECF7ECF7ECF7ECF7ECF7ECF7ECF96
:1012F0007ECF7ECF7ECF7ECF7ECF7ECF7ECF7ECF86
:101300007ECF7ECF7ECF7ECF7ECF7ECF7ECF7ECF75
:101310007ECF7ECF7ECF7ECF7ECF7ECF7ECF7ECF65
:101320007ECF7ECF7ECF7ECF7ECF7ECF7ECF7ECF55
:101330007ECF7ECF7ECF7ECF7ECF7ECF7ECF7ECF45
:101340005ECF5ECF5ECF5ECF5ECF5ECF5ECF5ECF35
:101350005ECF5ECF5ECF5ECF5ECF5ECF5ECF7ECF05
:101360007ECF7ECF7ECF7ECF7ECF7ECF7ECF7ECF15
:101370007ECF7ECF7ECF7ECF7ECF7ECF7ECF7ECF05
:101380007ECF7ECF7ECF7ECF7ECF7ECF7ECF7ECFF5
:101390007ECF7ECF7ECF7ECF7ECF7ECF7ECF7ECFE5
:1013A0007ECF3ECF0000010021002100210021005E
:1013B0002100210021002100210021002100010045
:1013C00041087ECF7ECF7ECF7ECF7ECF7ECF7ECFB9
:1013D0007ECF7ECF7ECF7ECF7ECF7ECF7ECF7ECFA5
:1013E0007ECF7ECF7ECF7ECF7ECF7ECF7ECF7ECF95
:1013F0007ECF7ECF7ECF7ECF7ECF7ECF7ECF7ECF85
:101400007ECF7ECF7ECF3ECF000041004100410025
:1014100041004100410041004100410041004100C4
:101420004100210041087ECF7ECF7ECF7ECF7ECF90
:101430007ECF7ECF7ECF7ECF7ECF7ECF7ECF7ECF44
:101440007ECF7ECF7ECF7ECF7ECF7ECF7ECF7ECF34
:101450007ECF7ECF7ECF7ECF7ECF7ECF7ECF7ECF24
:101460007ECF7ECF7ECF7ECF7ECF3ECF00004100AD
:10147000410041004100410041004108410841084C
:10148000420041084108410061087ECF7ECF7ECFF7
:101490007ECF7ECF7ECF7ECF7ECF7ECF7ECF7ECFE4
:1014A0007ECF7ECF7ECF7ECF7ECF7ECF7ECF7ECFD4
:1014B0007ECF7ECF7ECF7ECF7ECF7ECF7ECF7ECFC4
:1014C0007ECF7ECF7ECF7ECF7ECF7ECF7ECF3ECFF4
:1014D00000000100010021002100010001002100A5
:1014E00021002100210001080100010021007ECF20
:1014F0007ECF7ECF7ECF7ECF7ECF7ECF7ECF7ECF84
:101500007ECF7ECF7ECF7ECF7ECF7ECF7ECF7ECF73
:101510007ECF7ECF7ECF7ECF7ECF7ECF7ECF7ECF63
:101520007ECF7ECF7ECF7ECF7ECF7ECF7ECF7ECF53
:101530007ECF3ECF63118411A419841184118411CC
:10154000A41984198419841984198419E439E5319A
:10155000E5395ECF7ECF7ECF7ECF7ECF7ECF7ECF72
:101560007ECF7ECF7ECF7ECF7ECF7ECF7ECF7ECF13
:101570007ECF7ECF7ECF7ECF7ECF7ECF7ECF7ECF03
:101580007ECF7ECF7ECF7ECF7ECF7ECFFCC6620861
:10159000C318E310A310E93AEA3CCA34CA34CA3487
:1015A000CA34CA34EA34CA34CA34CA348934EA4C34
:1015B0000DC7EDCEAEC664298310C2108208CB528F
:1015C0007ECF7ECF7ECF7ECF7ECF7ECF7ECF7ECFB3
:1015D0007ECF7ECF7ECF7ECF7ECF7ECF7ECF7ECFA3
:1015E0007ECF7ECF7ECF7ECF7ECF7ECF7ECF7ECF93
:1015F000BBBE0000210041000000A419C934893499
:1016000089348934A934A934A93489348934893492
:10161000892CC944EDBECBC66CBEE2180000210087
:101620000000C7397ECF7ECF7ECF7ECF7ECF7ECFEC
:101630007ECF7ECF7ECF7ECF7ECF7ECF7ECF7ECF42
:101640007ECF7ECF7ECF7ECF7ECF7ECF7ECF7ECF32
:101650007ECF7ECFBCBE0000410842082100A41905
:10166000C93489348934A934A92CA934A934A934BA
:1016700089348934892CC944CDBECCC66CBEE218ED
:10168000210041000000E7397ECF7ECF7ECF7ECFA4
:101690007ECF7ECF7ECF7ECF7ECF7ECF7ECF7ECFE2
:1016A0007ECF7ECF7ECF7ECF7ECF7ECF7ECF7ECFD2
:1016B0007ECF7ECF7ECF7ECFBBBE000041084200F2
:1016C0002100C419C934893489348934A934A9342E
:1016D000A934893489348934892CC944EDBECCC6F7
:1016E0006CBEE218210041000000E7397ECF7ECFBA
:1016F0007ECF7ECF7ECF7ECF7ECF7ECF7ECF7ECF82
:101700007ECF7ECF7ECF7ECF7ECF7ECF7ECF7ECF71
:101710007ECF7ECF7ECF7ECF7ECF7ECFDCC6000059
:101720002100210000008419CA348934A934A93465
:10173000A934A934A934893489348934892CC94419
:10174000CDBECBBE6CBEA210010000000000C739A8
:101750007ECF7ECF7ECF7ECF7ECF7ECF7ECF7ECF21
:101760007ECF7ECF7ECF7ECF7ECF7ECF5ECFDCC6DC
:10177000DCC6DCC6DCC6DCC6DCC6DCC6DCC6FDC638
:1017800034956311A411A41164118622C934A934BB
:10179000A934A934A934A934A93489348934A934A1
:1017A000892CC944CDBECCBEACBECB8C8A848A8485
:1017B0008984B3A57ABE59B639B659B67ECF7ECFE5
:1017C0007ECF7ECF7ECF7ECF7ECF7ECF7ECF7ECFB1
:1017D000B7A50000000000000000000000000000AD
:1017E000000000002309691B281B271B081B8823F6
:1017F000C92CA934A934A934A934A934A934893409
:1018000089348934892CC944CDBEACBEACBE0DC769
:101810000DCF0CC74DCFCCAD000000000000000084
:101820007ECF7ECF7ECF7ECF7ECF7ECF7ECF7ECF50
:101830007ECF7ECFD8A50000610042084208410853
:10184000410841086208210823110823E71AE71A12
:10185000C7126823C934A92CA92CA9348934A93406
:10186000A934893489348934892CC944CDBEACBEAD
:10187000ACBEACBEACBEACBEECC6ABA5420021005B
:10188000210041087ECF7ECF7ECF7ECF7ECF7ECF20
:101890007ECF7ECF7ECF7ECFD8A5000061084108E5
:1018A0004108410841084208410821004311081B32
:1018B000E71AE712C71A6723A93489348934A9348F
:1018C000A934A934A934893489348934892CC94488
:1018D000CDBEACBEACBEACBEACBEACBEECC6ABA569
:1018E00042002100210041087ECF7ECF7ECF7ECFF7
:1018F0007ECF7ECF7ECF7ECF7ECF7ECFF8AD000075
:1019000041004200420041004100410041002100ED
:101910002311281B071B2713E71A8823C934A9346E
:10192000A934A934A934A934A934A934893489340F
:10193000892CE944CDBEACBEACBEACBEACBEACBE28
:10194000ECC6ABA542002100210041087ECF7ECF2E
:101950007ECF7ECF7ECF7ECF7ECF7ECF7ECF7ECF1F
:10196000559D211882208220822082208220822080
:10197000622062200319461A261A46120612C71A56
:101980002934292C292C092C29348934A934A93447
:1019900089348934892CE944CDBEACBEACBEACBE22
:1019A000ACBEACBEECC6ABA542002100210041009C
:1019B000A230A330A330A330A330A330A330A33090
:1019C000A23082282551A671866986698669866952
:1019D000866986698669A671E440000021002100BD
:1019E0000000E308E71AC712C712A712681BAA343F
:1019F000A9348934A9348934892CE944EDBEACBEBC
:101A0000ACBEACBEACBEACBECCC68BA54208210001
:101A100021004108623062306230623062306230F0
:101A20006230623062304128045186696669856996
:101A3000856985698569856985698671E3402100C5
:101A4000410841082100E308071BC71AC71AC7123B
:101A50006823AA34A9348934A9348934892CE94407
:101A6000CDBEACBEACBEACBEACBEACBEECC68BA5F7
:101A700042082100210041088230823082306230E9
:101A8000823082308230623062306128045186694F
:101A9000666965696569656985698569856986714C
:101AA000E3402100410841082100E308081BC71A50
:101AB000C71AC7126823A934A9348934A934A934B0
:101AC000892CE944CDBEACBEACBEACBEACBEACBE97
:101AD000CCC68BA54208210021004108823082300B
:101AE00082288230823082308230822882286128A7
:101AF0000449866966696669856965698669666992
:101B000066698671E44021004100610021000309FB
:101B1000071BC712C71AC712671BA934A934A934F7
:101B2000A934A934892CE944CDBEACBEACBEACBE50
:101B3000ACBEACBECCC68BA542082100210061081A
:101B40006230623062306230623062306230623005
:101B500062306228244986696669866966696669B1
:101B60006669666966698671E4402000410841083B
:101B700021000311071BE712E712A7124823AA341A
:101B8000A92CA934A934A934892CE944CDBEACBE12
:101B9000ACBEACBEACBEACBECCC68BA54200210078
:101BA0002100620861286128612861286128612874
:101BB0006128612861284128244986696669856908
:101BC00066698661866186698661A671E338000070
:101BD000220021000000E308071BC712C612A6124C
:101BE000471BA934A934A934A934A934892CC94480
:101BF000CDBEACBEACBEACBEACBEACBEECC68BA566
:101C000042082100210061086561656165616561C7
:101C1000656165616561656165616561656166698B
:101C2000666165618669044162108210621042102B
:101C30008419882B472B47234723672B28242824E4
:101C400008240824482CA934A934A934A934A93477
:101C5000892CE944CDBEACBEACBEACBEACBEACBE05
:101C6000ECC68BA54208210021006108279248920A
:101C700048924892489248922892489248924892B4
:101C8000C6796561666186618669E3382100410035
:101C900041000100E4192B3DC934C934CA34C934A8
:101CA000A934A934A934C934A934A934A934A9342C
:101CB000A9348934892CE944CDBEACBEACBEACBEDF
:101CC000ACBEACBEECC68BA5420821002100610869
:101CD000278A278A278A278A278A278A278A278A7C
:101CE000278A2792C6716561666186618669E338D5
:101CF0002100410041000100C419EA34A9348934AB
:101D000089348934A934A934A934A934A934A9342B
:101D1000A934A934A934A934892CE944CDBEACBE78
:101D2000CCBEACBEACBEACBEECC68BA5420821009E
:101D300021006208278A278A278A278A278A278AF2
:101D4000278A278A278A2792C6716561666186611C
:101D50008669E3382100410041000100C419EA34DA
:101D6000A934893489348934A934A934A934A934EB
:101D7000A934A934A934A934A934A934892CE94453
:101D8000CDBEACBEACBEACBEACBEACBEECC68BA5D4
:101D90004208210021006208278A278A278A278A89
:101DA000278A278A278A278A278A2792C6796661FF
:101DB000656186618669E3382100410841080100B8
:101DC000E519EA3CA934A934A934A934A934A934C1
:101DD000A934A934A934A934A934A934893489345B
:101DE000892CE944CDBEACBEACBEACBEACBEACBE74
:101DF000ECC68BA54208210021004108278A278ACA
:101E0000278A278A278A278A278A278A278A279242
:101E1000C6796661656186618669E338210041089B
:101E200042080100E519EA3CA934A934A934A934CF
:101E3000A934A934A934A934A934A934A934A934BA
:101E4000A9348934892CE944CDBEACBEACBEACBE4D
:101E5000ACBEACBEECC68BA54200210021006208DE
:101E6000278A278A278A278A278A278A278A278AEA
:101E7000278A2792C6796661656166618669E3385B
:101E80002100410842080100E519EA3C8934A934DF
:101E9000A934A934A934A934A934A934A934A9345A
:101EA000A934A934A9348934892CC944CDBECCBE07
:101EB000ACBEACBEACBEACBECCC68BA54200210055
:101EC00021006208278A278A278A278A278A278A61
:101ED000278A278A278A2792C679656165616661A4
:101EE0008669E3382100410841080100E519EA3C10
:101EF0008934A934A934A934A934A934A934A9341A
:101F0000A934A934A934A934A934A934892CC944E1
:101F1000CDBECCBEACBEACBEACBEACBEECC68BA522
:101F20004208210021006108C8B2E8B2E8B2C8B294
:101F3000C9AA87A268A268A268A268A2C7816561CF
:101F4000666986698669E3382100420842082108EB
:101F50006411671B271B47132713681BA934A93477
:101F6000A934A934A934A934A934A934A934A93489
:101F7000A92CC944CDBECCBEACBEACBEACBEACBEC2
:101F8000ECC6ABA54208210021006108E8BAE8BA16
:101F9000E8BAE8BAE8BA67AA68AA68A268AA88AAEA
:101FA000E7816569656966698671E43821004108E1
:101FB000420821082411E81AA71AE612A71247239B
:101FC000A934A934A934A934A934A934A934A93429
:101FD000A934A934892CC944CDBEACBEACBEACBEBC
:101FE000ACBEACBEECC6ABA5420821002100620825
:101FF000E8B2E8BAE8BAE8BAC9B288AA88A268A280
:1020000068A288AAE6796561856986618671E33888
:1020100021004108410821084311E71AC71AE712B5
:10202000C71A481BA934A934A934A934A934A9343E
:10203000A934A934A934A934892CC944CDBEACBE75
:10204000ACBEACBEACBEACBEECC68BA5420821009B
:1020500021006208E8BAE8BAE8BAE8BAE9B268A2C8
:1020600068A268A268A268AAE6816669666985694D
:102070008671E33821004108410821002311071B24
:10208000C71AE712C712481BAA348934A934A934E5
:10209000A934A934A934A934A934A934892CE94430
:1020A000CDBEACBEACBEACBEACBEACBEECC68BA5B1
:1020B0004200210021006108E8BAE8BAE8BAE8BAAB
:1020C000E9B267A268A268A268A288AAC68145612F
:1020D000656166618669E338010021002100010025
:1020E00023112823E71A071BE71A6823C934C934C8
:1020F000C934C934C934A9348934A934A934A934B8
:10210000892CE944EDBEACBEACBEACBEACBEACBE30
:10211000ECC6ABA54208210021006108E8BAE8BA84
:10212000E8BAE8BAE9B268A268A268A267A267A2A0
:10213000278AC679E681E67906828561E338043923
:10214000043904394431E519C511E511A511461AC0
:10215000E92BC82BC82BC82B092CAA34A92CA934CD
:10216000A934A934892CE944EDBEACBEACBEACBEEA
:10217000ACBEACBEECC6ABA5420821002100620893
:10218000E8BAE8BAE8BAE8BAE8B268A268A268A20F
:1021900067A267A268A268A268A288A288AA2792FA
:1021A000C679C679C679E78124510000210021084B
:1021B0000000E208E71AC712C712A712471BAA3489
:1021C000A934A934A934A934892CE944CDBEACBEC4
:1021D000ACBEACBEACBEACBEECC68BA54200210012
:1021E00021006208E8BAE8BAE8BAE8BAE8B268A238
:1021F00068A268A268A268A268A267A268A268A290
:1022000068A2E689A571A671A671C679245141001C
:102210004108410821000309071BE71AE71AC71202
:10222000681BA934A934A934A934A934892CE944F8
:10223000CDBEACBEACBEACBEACBEACBEECC68BA51F
:102240004200210021006208E8BAE8BAE8BAE8BA18
:10225000E8B268A268A267A268A268A268A267A2A0
:1022600047A268A268A2E689A571A671A671C6797F
:10227000245141004108410821000309081BE71AC5
:10228000E71AC712681BA934A934A934A934A934A0
:10229000892CE944CDBEACBEACBEACBEACBEACBEBF
:1022A000ECC68BA54200210021006208E8BAE8BA1A
:1022B000E8BAE8BAE9BA67A268A268A268A268A206
:1022C00068A267A267A248A268A2E6898671A67181
:1022D000A671C67924492100420861002100E3105B
:1022E000071BC712E71AC7126823A9348934A93417
:1022F000A934A934892CE944CDBEACBEACBEACBE79
:10230000ACBEACBEECC68BA5420021002100620829
:10231000E8BAE8BAE8BA08BBE8BA87A268A268A235
:1023200068A267A267A268A267A268A267AA0692CB
:10233000A679C679C679E6812451000001082100FA
:102340000100E310E71AA712C712A7124823A93405
:10235000A934A934A934A934892CE944CDBEACBE32
:10236000ACBEACBEACBEACBECCC68BA542002100A0
:1023700021006208A8B2C8B2C8B2C8B2A8AA68AAA6
:1023800068A268A268A288AA27920782068A068A9B
:102390000692A56904412449044904492439841159
:1023A0006519841964110622C92BA823A823A82320
:1023B000E92BA934A934A934A934A934892CC944F6
:1023C000EDBEACBEACBEACBEACBEACBEECC68BA56E
:1023D000420021002100610867A267A267A268A2EB
:1023E00068A268A268A268A268A288AAE681856934
:1023F00085718671A679034101002100210000004A
:1024000003092823081B271B071B6823CA34A93488
:10241000A934A934A934A934A934A934A934A934D4
:10242000892CE944EDBEACBEACBEACBEACBEACBE0D
:10243000CCC68BA5420821002100620888AA88AA80
:1024400068A268A268A268A268A268A268A288AA14
:10245000068A8671A571A671C681044121004108D2
:10246000410821002311081BC712E712C712481B9D
:10247000A934A934A934A934A934A934A934A93474
:10248000A934A934892CE944CDBEABBEACBEACBEE8
:10249000ACBEACBECCC68BA54208210021006208B0
:1024A00068A288AA68A268A268A268A268A268A2B4
:1024B00068A288AA068A8671A571A671C6810441A0
:1024C00021004108410821004311081BC71AE712E7
:1024D000C712481BA934A934A934A934A934A93492
:1024E000A934A934A934A934892CE944CDBEABBEA2
:1024F000ACBEACBEACBEACBECCC68BA54208210007
:1025000021006208320000003200000068A268A2C8
:1025100068A268A268A268A268A268A268A267A26C
:1025200068A267A268A268A268A2068AA571A671BD
:10253000A671A679034141004208410841000311F8
:10254000071BC71AC71AA71A481BA934A934A934EC
:10255000A934A934892CC944CDBEACBEACBEACBE36
:10256000ACBEACBECCC68BA5420021002100410010
:1025700068A268A268A268A268A268A268A268A20B
:1025800068A268A268A268A268A268A268A2068A75
:1025900085718671A671A679034921004208410818
:1025A00041000309081BE71AE71AC71A481BA93498
:1025B0008934A934A934A934892CC944CDBEACBE10
:1025C000ACBEACBEACBEACBEECC68BA54208210016
:1025D0002100210068A268A268A268A268A268A27D
:1025E00068A268A268A267A268A267A247A247A2DF
:1025F00068A2068AA571A571A571C6790349210053
:102600004208410841000309071BE71AE71AC71AE5
:10261000481BA934893489348934A934892CC944A4
:10262000CDBEACBEACBEACBEACBEACBEECC68BA52B
:10263000420821002100410068A268A268A268A2A5
:1026400068A268A268A268A268A267A268A2689A43
:1026500068A268A268A2068AA671A6718671C67968
:1026600004492100420841082108E310E71AE71253
:10267000E712C712481BA934893489348934893454
:10268000892CC944CDBEACBEACBEACBEACBEACBEEB
:10269000CCC68BA5420021002100210068A268A2BF
:1026A00068A268A268A268A268A267A267A268A2DC
:1026B000078AA679A681C679E68144518218A220AC
:1026C000A21882184421661A461A461A261AC722E8
:1026D0004A2C292C292C29344934A93489348934A9
:1026E00089348934892CC944CDBEABBEACBEACBEE6
:1026F000ACBEACBECCC68BA542002100210021009F
:1027000068A247A268A268A268A268A268A268A29A
:1027100067A268A2E689866985718671A6790441F7
:1027200021004100410021004411281BE81AE71A4A
:10273000E71A6823CA34A934A934A934A934A934BE
:10274000A934893489348934892CC944CDBEACBEBE
:10275000ACBEACBEACBEACBECCC68BA542082100A4
:102760002100210068A268A268A268A268A268A2EB
:1027700047A268A268A268A2E6898569A671A671C7
:10278000C679044121004208420821084411071B70
:10279000E71AE71AC71A4823A93489348934A934B7
:1027A000A934A934A934893489348934892CC94499
:1027B000CDBEACBEACBEACBEACBEACBEECC6ABA57A
:1027C000420821002100210068A247A268A268A255
:1027D00068A268A268A268A268A268A2E681857160
:1027E000A671A671C6790441210042084208210859
:1027F0004311081BC71AE71AC71A4823A93489349A
:102800008934A934A934A934A934A9348934A93420
:10281000892CC944CDBEACBEACBEACBEACBEACBE59
:10282000ECC6ABA5420821002100210068A268A2E5
:1028300068A268A268A268A247A247A247A268A2AB
:10284000068AA679A679C679E7812449010021087C
:10285000210801080311E71AA71AC712A712471B7C
:10286000A934893489348934A934A934A934A934E0
:1028700089348934892CC944CDBEACBEACBEACBE53
:10288000ACBEACBEECC6ABA54208210021002100C5
:1028900068A268A268A268A268A268A268A268A2E8
:1028A00047A268A28569E338E3400341E340032976
:1028B000A511A511A5116411461AE92BA823A82377
:1028C000A823092CA934A93489348934A934A9341A
:1028D000A934A934A9348934892CC944CDBEACBEED
:1028E000ACBEACBEACBEACBEECC68BA542082100F3
:1028F0002100210068A247A268A268A267A268A27C
:1029000068A268A267A288AA244921004100210088
:102910002100E308281B071B081BE81AA823CA3458
:10292000A934A934A934A93489348934893489343F
:10293000A934A934A934A93489348934892CC944E7
:10294000CDBEACBEACBEACBEACBEACBECCC68BA528
:10295000420021002100210068A268A268A268A2AA
:1029600067A268A268A267A267A288AA2449210078
:10297000620841082100E308E71AC71AC71AA71A14
:102980006823AA3489348934893489348934893470
:1029900089348934A934A934A934A934A9348934AF
:1029A000892CC944CDBEACBEACBEACBEACBEACBEC8
:1029B000CCC68BA5420821002100210068A268A294
:1029C00068A268A268A267A267A247A247A268AAF3
:1029D00044492100420841082100E308071BE71A87
:1029E000E71AC7126823AA34A9348934A934893470
:1029F0008934893489348934A934A934A934A9346F
:102A0000A9348934892CC944CDBEACBEACBEACBEA1
:102A1000ACBEACBECCC68BA542002100210021007B
:102A200068A268A268A268A268A268A247A247A298
:102A300047A268AA44492100610841082100E20830
:102A4000081BE71AE71AC71A6823AA34A93489347D
:102A500089348934A934A93489348934A934A9340E
:102A6000A934A934A9348934892CC944CCBEACBE5C
:102A7000ACBEACBEACBEACBECCC68BA54200210089
:102A80002100210068A268A268A268A268A268A2C8
:102A900068A247A247A268AA244921006108410808
:102AA0002100E208E81AE71AE71AC71A6823AA34CD
:102AB000A934893489348934A934A93489348934CE
:102AC000A934A934A934A934A9348934892CC94436
:102AD000CCBEACBEACBEACBEACBEACBEECC68BA578
:102AE000420821002100210068A268A268A268A211
:102AF00068A248A267A267A267A268AA4449210007
:102B0000610841082100E208E81AC71AC71AA71A83
:102B10006823AA34A93489348934893489348934BE
:102B2000893489348934A934A934A934A93489343D
:102B3000892CC944CCBEACBEACBEACBEACBEACBE37
:102B4000ECC6ABA5420821002100210068A268A2C2
:102B500068A247A268A268A268A268A267A268AA3F
:102B600045494100610841082100E208E71AE71AD7
:102B7000E712C7126823C934A934893489348934E7
:102B8000A934A934A934A934A934A934A934A9345D
:102B900089348934892CC944CDBEACBEACBEACBE30
:102BA000ACBEACBEECC6ABA54208210021002100A2
:102BB00068A268A268A268A268A268A268A267A2C6
:102BC00067A268AA44494100410842082100E2087E
:102BD000E71AC71AC71AC7126823A934A934893457
:102BE00089348934A934A934A934A934A934A9343D
:102BF000A934A93489348934892CC944CDBEACBEEA
:102C0000ACBEACBEACBEACBEECC6ABA542082100AF
:102C10002100210067A268A268A268A268A268A237
:102C200067A267A267A268AA24492100410041085F
:102C30002100E208281B071B071BE7128823C93461
:102C4000C934A934A934A934893489348934A934DC
:102C5000A934A934A934A934A9348934892CC944A4
:102C6000CDBEACBEACBEACBEACBEACBECCC68BA505
:102C7000420021002100210068A268A268A268A287
:102C800068A247A268A268A267A268AA65598218CA
:102C9000822082208220E318E511E511E511C5119B
:102CA000A61A292C082C092CE92B292CA934A93483
:102CB000893489348934A934A9348934A9348934CC
:102CC000892CC944CDBEACBEACBEACBEACBEACBEA5
:102CD000CCC68BA5420021002100210068A268A279
:102CE00068A268A268A268A267A267A268A268AA8E
:102CF0000782C669C671C671E779044101002108DF
:102D0000210801002311E712A71AC712A712471BB7
:102D1000AA348934893489348934893489348934AA
:102D200089348934892CC944CDBEACBEACBEACBE9E
:102D3000ACBEACBECCC68BA5420021002100210058
:102D400068A268A268A268A268A268A268A267A234
:102D500068A268A2068A86718579A671A679034160
:102D600041004208420821084411081BC71AE71A0B
:102D7000A71A4823A9348934893489348934893499
:102D80008934A93489348934892CC944CDBEACBE78
:102D9000ACBEACBEACBEACBEECC6ABA5420821001E
:102DA0002100210068A268A268A268A268A268A2A5
:102DB00067A267A267A268A2E7898671A571A6715A
:102DC000A781044141004108620821004411081B09
:102DD000C71AE712A7124823AA34893489348934E0
:102DE000893489348934893489348934892CC944B3
:102DF000CDBEACBEACBEACBEACBEACBEECC6ABA534
:102E0000420821002100210068A268A268A268A2ED
:102E100068A268A267A267A268A268A2E689867112
:102E2000A571A571C6790439210042004200010054
:102E30004411071BC71AE71AC71A4823C934A93413
:102E4000A934A934A934A934A934893489348934FA
:102E5000892CC944CDBEACBEACBEACBEACBEACBE13
:102E6000ECC68BA5420821002100210068A268A2BF
:102E700068A268A268A268A268A267A267A268A204
:102E8000068AA679A679A679E68144496210821855
:102E9000821862106421C71AA71AA71A871A272353
:102EA000892C692C693469346934A93489348934AA
:102EB000A934A934892CC944CDBEACBEACBEACBECD
:102EC000ACBEACBECCC68BA54200210021002100C7
:102ED00068A268A268A268A268A268A268A268A2A2
:102EE00067A267A267A2689A689A489A68A2078A46
:102EF000A669A671A671C679244961008208810875
:102F000061084311071BE7120713E712671BA93477
:102F1000893489348934A934892CC944CDBEACBEE6
:102F2000ACBEACBEACBEACBECCC68BA542082100CC
:102F30002100210068A268A268A268A268A268A213
:102F400068A247A268A268A267A267A247A247A296
:102F500068A2E6898571A671A671C6790349210028
:102F60004208410821000311081BC71AC71AC71AD3
:102F70006823A9348934893489348934892CC94433
:102F8000CDBEACBEACBEACBEACBEACBECCC68BA5E2
:102F9000420821002100210068A268A268A268A25C
:102FA00068A268A268A247A247A268A268A267A214
:102FB00047A247A268A2068A8571A671A671C67942
:102FC000044921004208610841000311071BE71A68
:102FD000E71AC71A6823A934A93489348934893493
:102FE000892CC944CDBEACBEACBEACBEACBEACBE82
:102FF000CCC6ABA5420821002100210068A268A22E
:1030000068A268A268A268A268A247A268A268A291
:1030100067A247A247A247A268A2068A8571A67145
:10302000A671C67904492100420841082100031114
:10303000071BE71AE71AC7126823A934A934A93471
:1030400089348934892CC944CDBEACBEACBEACBE7B
:10305000ACBEACBECCC68BA5420021002100410015
:1030600068A268A268A268A268A268A268A268A210
:1030700068A267A267A267A267A267A268A2068A7F
:10308000A571A679A679C6790449210021084100D5
:1030900001000311E81AC71AC71AA71A6823A9342E
:1030A000A934A93489348934892CC944CDBEACBE35
:1030B000ACBEACBEACBEACBEECC68BA54200210023
:1030C0002100410088A267A267A287A288A267A206
:1030D00068A268A268A268A2679A479A479A489A23
:1030E000489AE6798561866186618669444102096C
:1030F00002092209E208A419471B271B271B071BEB
:10310000A823A9348934893489348934892CC94461
:10311000CDBEACBEACBEACBEACBEACBEECC6ABA510
:103120004200210021002100C8BAC8B2C8B2E8B2EA
:10313000C9B267A268A268A268A268AA068A857155
:10314000A571A679A67903414100610861080100D3
:10315000E521AA3C6934892C69348934A92C893445
:1031600089348934892CA92C8934A934A934A93407
:10317000892CC944CDBEACBEACBEACBEACBEACBEF0
:10318000ECC68BA54208210021002100E8BAE8BA6C
:10319000E8BAE8BAC8B268A268A268A268A268AA37
:1031A00006828671A671C671A68104412100410084
:1031B000410001000522CA3CA934A934A934A9342C
:1031C000A934A934A934A934A934A934A934A93417
:1031D000A934A934892CE944CDBEACBEACBEACBE8A
:1031E000ACBEACBEECC68BA542082100210041005C
:1031F000E8BAE8BAE8BAE8BAC8B267A268A268A2B0
:1032000068A268AA068A8671A671A671C679044169
:103210004100420862080100051ACA34892CA93409
:103220008934893489348934A934A9348934A93456
:10323000A934A934A934A934892CC944CDBEACBE63
:10324000ACBEACBEACBEACBECCC68BA542002100B1
:1032500021002100E8BAE8BAE8BAE8BAC8B267A221
:1032600068A247A268A268AA078A8671A671A67199
:10327000C679244141004208420801000522CA3CA7
:103280008934A9348934893489348934A934A934F6
:10329000A934A934A934A934A934A934892CC9443E
:1032A000CDBEACBEACBEACBEACBEACBECCC68BA5BF
:1032B0004208210021004100E8BAE8BAE8BAE8BAB9
:1032C000C8B267A268A268A268A268A2068A8671CC
:1032D000A671A671C6790441210042084208010086
:1032E0000522CA34A934A93489348934A934A934CB
:1032F00089348934A934A934A934A934A934A93426
:10330000892CC944CDBEACBEACBEACBEACBEACBE5E
:10331000ECC6ABA54208210021004100E8BAE8BA9A
:10332000E8BAE8BAC9B267A268A268A268A268AAA5
:10333000068A8671A671A671A67904412100420809
:10334000410801000522EA3CA934C934A934AA3451
:10335000A934A934A934A934A934A934A934A93485
:1033600089348934892CC944CDBEACBEACBEACBE58
:10337000ACBEACBEECC6ABA54208210021002100CA
:1033800088AA88AA88AA88AA88AA68A268A268A225
:1033900068A268A2068A8671A671A671A679044100
:1033A00021004208410801008419A82368238823CA
:1033B0006823C92BA934A934A934A9348934A93480
:1033C000A934A934A9348934892CC944CDBEACBEF2
:1033D000ACBEACBEACBEACBEECC6ABA542082100D8
:1033E0002100210068A268A268A268A268A268A25F
:1033F00068A268A268A268A2E6898671A679A67109
:10340000A679044121004108420821004411E81A2C
:10341000A71AE712A712471BA934A934A934A93463
:10342000A934A934A934A934A9348934892CC944CC
:10343000CDBECCBEACBEACBEACBEACBEECC6ABA5CD
:10344000420021002100210068A268A268A268A2AF
:1034500067A267A267A268A268A268A2068A8671AC
:10346000A671A671A67904412100420842082100F4
:103470006411081BE71AE712A71A681BA934A934BC
:10348000A934A9348934A934A934A934A934893494
:10349000892CC944CDBECCBEACBEACBEACBEACBEAD
:1034A000ECC6ABA5420021002100210068A268A261
:1034B00068A268A268A268A268A268A268A268AAB4
:1034C000E6898571A671A571A6790441410041087C
:1034D000410021084419071BC71AE71AC7124823DD
:1034E000AA3489348934A934A9348934A934893473
:1034F0008934A934892CC944CDBEACBEACBEACBEA7
:10350000ACBEACBEECC68BA5420021002100410040
:1035100068A268A268A268A268A268A268A268A25B
:1035200068A268AAE689856986718671A6710339E1
:1035300001002100210001006411481B081B071332
:10354000E71A8823CA34A934A934A934A934A93480
:103550008934893489348934892CC944CDBEACBEC0
:10356000ACBEACBEACBEACBECCC6ABA54208210066
:103570002100210068A268A268A268A268A268A2CD
:1035800068A268A268A267A24792078A078A078A88
:10359000079285690439244124412441443184112E
:1035A000641964114411251AA82B882388238823C1
:1035B000E92BA934A934893489348934892CC94444
:1035C000CDBEACBEACBEACBEACBEACBECCC68BA59C
:1035D000420821002100210067A267A267A268A219
:1035E00068A268A268A268A268A268A268A268A28B
:1035F00068A268A268A2078AC679C679A679E68118
:10360000244900002108210021000311E71AC71AEC
:10361000C71AA712481BA9348934893489348934DC
:10362000892CE944CDBEACBEACBEACBEACBEACBE1B
:10363000ECC68BA5420821002100210067A267A2E9
:1036400067A268A268A268A268A268A268A268A22B
:1036500067A267A268A268A268A2068AA571A6717D
:10366000A671C67904494100420861004100231156
:10367000071BE71AE71AC71A6823A934A934893443
:1036800089348934892CE944CDBEACBEACBEACBE15
:10369000ACBEACBEECC68BA54208210021002100C7
:1036A00067A267A267A268A268A268A268A268A2CD
:1036B00068A268A268A247A247A267A268A2068A77
:1036C0008571A671A671C679044921004108610877
:1036D00041002311071BC71AE71AC71A6823A93428
:1036E000A934893489348934892CC944CDBEACBE0F
:1036F000ACBEACBEACBEACBECCC68BA542002100FD
:103700002100410068A268A268A268A268A268A21B
:1037100068A268A268A268A248A247A247A248A2DB
:1037200068A2068A8571A671A671C679044921002E
:103730004108610041002311071BE712E71AC71A6D
:103740006823A9348934893489348934892CC9445B
:10375000CDBEACBEACBEACBEACBEACBEECC68BA5EA
:10376000420821002100410068A268A268A268A264
:1037700068A268A268A268A268A268A268A268A2F9
:1037800068A268A268A2078AA679C679A679E681A6
:10379000044921002108210801080311071BC71251
:1037A000C71AA71A4823A934A9348934893489341B
:1037B000892CC944CCBEACBEACBEACBEACBEACBEAB
:1037C000ECC6ABA5420821002100410068A268A216
:1037D00068A268A268A268A268A268A247A267A2BB
:1037E000479A078A0792278A2792A6712449454952
:1037F000454945510431E208E308E208C208841152
:10380000671B471B471B271BA823A934A9348934EE
:1038100089348934892CC944CDBEACBEACBEACBEA3
:10382000ACBEACBEECC68BA5420821002100410015
:1038300068A268A268A268A268A268A268A268A238
:1038400068A268A2E781867185718671A5790339BE
:10385000210041002100000064112823E81AE71A22
:10386000C71A4823AA34A934A934A934A9348934FD
:10387000A934893489348934892CC944CDBEACBE7D
:10388000ACBEACBEACBEACBEECC68BA54208210043
:1038900021004100320000003200000068A268A24E
:1038A00068A288A268AAE8B2E8BAE8BAE8BAE9BAAF
:1038B00088AA67A268A267A268A2E7898571A67133
:1038C000A671A6790449210042084108410003116C
:1038D000071BE71AE71AC71A4823A9348934893421
:1038E00089348934892CC944CDBEACBEACBEACBED3
:1038F000ACBEACBECCC68BA5420021002100620844
:1039000068A268A268A288A288AAE8BAE8BAE8BA57
:10391000E8BAE8BAA8AA47A268A268A268A2E6899B
:103920008571A671A671A67904492100420861003B
:1039300021000311071BE71AE71AC71A471BA9340E
:10394000A934893489348934892CE944CDBEACBE8C
:10395000ACBEACBEACBEACBECCC68BA5420021009A
:103960002100620868A268A268A268A287AAE8BAD1
:10397000E8BAE8BAE8BA08BBA8B268A268A268A226
:1039800068A2E689A671C679A671C67904492100A4
:10399000410841000108E310071BC71AE71AA71ADC
:1039A000471BA934A934893489348934892CE944E2
:1039B000CDBEACBEACBEACBEACBEACBECCC68BA5A8
:1039C000420821002100620868A268A268A268A2D9
:1039D00088AAC8B2C8B2C8B2C8B2E8B288A2479A28
:1039E000489A489A68A2E779866186618661866905
:1039F000044181088208A20882084411471B271B42
:103A0000271B071B68238A34A934A934A9348934B5
:103A1000892CE944CDBEACBEACBEACBEACBEACBE27
:103A2000CCC68BA5420821002100620868A268A2CA
:103A300068A268A288A267A268A268A268A288AAEF
:103A4000068AA671A679A671C679044121004100B3
:103A5000410821004411E71AA71AC612A71A282301
:103A6000AA34893489348934892CA934A934A934F5
:103A7000A9348934892CE944CDBEACBEACBEACBE01
:103A8000ACBEACBEECC68BA542082100210062088A
:103A900068A268A268A268A288A288A288A288A256
:103AA00088AA88AA078AA671A679A671C679044150
:103AB00021004108420821004411081BC71AE712DF
:103AC000C71A481BC934A934A934A934A934A93464
:103AD000A934A934A934A934892CC944CDBEACBEBB
:103AE000ACBEACBEACBEACBEECC68BA542002100E9
:103AF0002100620868A268A267A268A288AA68A2D8
:103B000088AA87AA87A288AA068AA671A679A6711A
:103B1000C681044121004208410821084411081BC4
:103B2000C71AE71AC71A4823A934A934A934A934F3
:103B3000A934A934A934A934A934A934892CC94495
:103B4000CDBEACBEACBEACBEACBEACBEECC68BA5F6
:103B5000420821002100620868A268A268A288AA1F
:103B600068A268A288AA88AA88AA88AA068AA671D2
:103B7000A679C671C6810441410042084208210865
:103B80004411071BC71AE71AC71A6823A934A934B6
:103B9000A934A934A934A934A934A934A934A9343D
:103BA000892CC944CDBEACBEACBEACBEACBEACBEB6
:103BB000CCC68BA5420821002100620868A268A239
:103BC00068A268A268A268A288AA88AA88AA88AA05
:103BD000068AA671A679A671C68104412100420811
:103BE000420821004411071BC712E712C712671BC6
:103BF000A934892CA934A934A934A934A934893425
:103C00008934A934892CC944CDBEACBEACBEACBE8F
:103C1000ACBEACBEECC6ABA54208210021006208D8
:103C200068A268A288AA68A288AA68A288A287A2B5
:103C300087A288AA068AA671A679C671C6810441A0
:103C400021004208410801086411281B071B071BBB
:103C5000E71A6823A934A92CA934A934A934A934B2
:103C6000A934893489348934892CC944CDBEACBE89
:103C7000ACBEACBEACBEACBEECC6ABA5420821002F
:103C80002100620868A268A268A288AA88AA88AAF5
:103C900088AA88AA88AA88AA078AA671A679A6717E
:103CA000C68104414100420842080100051ACA3495
:103CB0008934A93489348934A934A934A934A9347C
:103CC000A934A934A934A934A934A934892CE944E4
:103CD000CDBEACBEACBEACBEACBEACBEECC68BA565
:103CE000420821002100610868AA88AA88AA88AA37
:103CF00088AA88AA88AA88AA88AA88AA078AA671F0
:103D0000A679C671C681044121004108420801001C
:103D10000522EA34A934A934A934A934A934A93430
:103D2000A934A934A934A934A934A934A934A934AB
:103D3000892CE944CDBEACBEACBEACBEACBEACBE04
:103D4000ECC68BA5420821002100610888AA88AA38
:103D500088AA88AA87A287AA88AA88AA88AA88AADD
:103D6000078AA671A571A671C68104412100410888
:103D7000420801000522CA3C8934A93489348934B7
:103D8000A934A934A934A934A934A934A934A9344B
:103D9000A934A934892CE944EDBEACBEACBEACBE9E
:103DA000ACBEACBEECC68BA5420821002100620867
:103DB00088AA67AA88AA88AA88AA87AA88AA88AA95
:103DC00088AA88AA078AA671A679A671C681044125
:103DD00021004108410801000522CA3C8934A93468
:103DE00089348934A934A934A934A934A934A9342B
:103DF000A934A934A934A934892CE944CDBEACBE78
:103E0000ACBEACBEACBEACBEECC6ABA542002100A5
:103E10002100620888AA88AA88AA88AA88AA88AAEB
:103E200088AA88AA88AA88AA068AA671A679A671ED
:103E3000C679044121004208410801000522CA3C1C
:103E40008934A93489348934A934A934A934A934EA
:103E5000A934A934A934A934A934A934892CC94472
:103E6000CDBEACBEACBEACBEACBEACBEECC6ABA5B3
:103E7000420821002100620807820782E781078249
:103E8000E781E679E681E681E679E681C679A67181
:103E9000A671A671C6812441210041084108010094
:103EA0000522C9348934A93489348934A934A93420
:103EB000A934A934A934A934A934A934A934A9341A
:103EC000892CE944CDBEACBEACBEACBEACBEACBE73
:103ED000ECC6ABA54208210021006208C779C7796A
:103EE000C679C679C679C679C679C671C671C671F2
:103EF000C671C671C671A671C6810441210042080F
:103F0000410801000522E9348934A934893489340F
:103F10008934A934A934A934A934A934A934A934D9
:103F2000A934A934892CE944CDBEACBEACBEACBE2C
:103F3000ACBEACBEECC6ABA54208210021006208B5
:103F4000E779C679C679E779E679E679C679C679F7
:103F5000C679C679C671A671A671C671C6810441BB
:103F600021004108410801002522EA3CA934A93476
:103F7000A934A9348934A934A934A934A934A93479
:103F8000A934A934A934A934892CE944CDBEACBEE6
:103F9000ACBEACBEACBEACBECCC68BA54200210054
:103FA00021006208E779E779E679C679E679C6798A
:103FB000C679C679C679C679C679A671A679A67179
:103FC000C67904412100410841080100E5216A3415
:103FD000282C292C092C492CA934A934A934A9341A
:103FE000A934A934A934A934A934A934892CC944E1
:103FF000CDBEACBEACBEACBEACBEACBEECC68BA542
:104000004208210021006208E779E679E679C6795D
:10401000C679C679C679C679C679C679A679A679E8
:10402000A679A671C68104412100410841082108F2
:104030004411E71AA71AC712A712281BAA34A934D9
:10404000892CA934A934A934A934A934A934A934B0
:10405000892CC94CCDBEACBEACBEACBEACBEACBEF9
:10406000ECC68BA54208210021006108E679E679BB
:10407000C679C679C679C679C679C679C679C67948
:10408000A679C679A679A671C681044121004208A5
:10409000410821006411081BC71AE712C71A4823F8
:1040A000A934A934A934A934A934A934A934A93428
:1040B000A934A934892CE94CCDBEACBEACBEACBE93
:1040C000ACBEACBEECC6ABA5420821002100620824
:1040D000E679E679C679C679C679C679C679C679A8
:1040E000C679C679A679C679A679A671C681044132
:1040F00041004108410821006411071BC71AE71A53
:10410000C71A4823A934A934A934A934A934A93435
:10411000A934A934A934A934892CE94CCDBEACBE4C
:10412000ACBEACBEACBEACBEECC6ABA5420821007A
:1041300021006208C671C671C671C671C671C671AA
:10414000C671A671A671A669A671A679A679A67987
:10415000C679044101002100210001006411481BBF
:10416000081B081B081B8823C934C934C934C93447
:10417000A934A934A934A934A934A934892CE9442F
:10418000EDBEACBEACBEACBEACBEACBEECC68BA590
:104190004208410021006208823082308230823839
:1041A0008238823082308230823082304459C679FF
:1041B000A679A679C6796459E330E330E330C33099
:1041C0002429E519C519C519C5198622092CE82B1A
:1041D000E82BC92B092CA934A934A934A934A93452
:1041E000892CE944EDBEACBEACBEACBEACBEACBE30
:1041F000ECC68BA5420841002100620862286228B3
:10420000622862306228622862286230622841286F
:104210002459C679A671A679A579A679C779C679F0
:10422000C679E68124490000210021080100E3103D
:10423000E71AC712C712A712471BA934A934A93419
:10424000A934A934892CE944EDBEACBEACBEACBEE9
:10425000ACBEACBEECC68BA5420841002100620892
:1042600062306230623062306228622862306230CE
:10427000622841282459C679A671A679A679A6791B
:10428000A671A671A671C679044941004208610869
:1042900041080311081BE71AE71AC71A6823A93453
:1042A000A934893489348934892CE944CDBEACBE23
:1042B000ACBEACBEACBEACBEECC68BA54208210009
:1042C000210062086230623062306228622862280F
:1042D00062286228622841282459C679A679A671E5
:1042E000A671A671A671A671A671C679044941008E
:1042F0004208610841002311081BE71AE71AC71A90
:104300006823A934A934893489348934892CE9444F
:10431000CDBEACBEACBEACBEACBEACBEECC68BA51E
:10432000420821002100620862306230623062304F
:104330006228622862286228622841282459C679A6
:10434000A671A671A671A671A671A671A671C6798D
:10435000044921004108610841002311081BE71AA4
:10436000E71AC71A6823A934A934893489348934EF
:10437000892CE944EDBEACBEACBEACBEACBEACBE9E
:10438000ECC68BA5420841002100610800200020F6
:104390000020002000200020002000200020001825
:1043A0002451E681C679C679C679C679C679C679B7
:1043B000C679E681044901002108210801000311A2
:1043C000E71AA71AA71A871A481BAA34893489340E
:1043D0008934A934892CE944CDBEACBEACBEACBE98
:1043E000ACBEACBEECC68BA5420821002100620821
:1043F0009BBE7ABE5ABE5AB659B659B659B659B6C8
:104400005AB67ABE9294E3480449044904490449DF
:104410000449044904490449443185118411841133
:104420006411251AC82BA823A8238823E823A934BC
:10443000A934893489348934892CC944EDBEACBE91
:10444000ACBEACBEACBEACBEECC6ABA54208210057
:10445000210062087ECF7ECF7ECF7ECF7ECF7ECF03
:104460007ECF7ECF7ECF7ECFB7A50000410041003A
:104470004100410041004100410000004411281B5F
:10448000081B071BE81A8823CA34A934A934A934A5
:10449000C934A934A934893489348934892CC9446C
:1044A000CCBEACBEACBEACBEACBEACBEECC68BA58E
:1044B00042082100210062087ECF7ECF7ECF7ECFD2
:1044C0007ECF7ECF7ECF7ECF7ECF7ECF97A50000E2
:1044D0004108420842084208410841086108210891
:1044E0002411071BC712E71AC71A4823A934A93495
:1044F000A934893489348934A93489348934893494
:10450000892CC944CCBEACBEACBEACBEACBEACBE4D
:10451000ECC6ABA542082100210061087ECF7ECF0A
:104520007ECF7ECF7ECF7ECF7ECF7ECF7ECF7ECF23
:10453000979D000041084108410841084208410890
:10454000410821004409071BC71AC712A71A4823AC
:10455000A9348934893489348934A934A934A934F3
:10456000A9348934892CE944CDBECBBECBBECCBEA8
:10457000ACBEABBEECC6ABA5420821002100620870
:104580007ECF7ECF7ECF7ECF7ECF7ECF7ECF7ECFC3
:104590007ECF7ECF769D000000000000000000006E
:1045A00000000000000000000309281B0713071B80
:1045B000E71A8823CA34A934A934A934A934A92C08
:1045C000A934893489348934892CE944CDBEACBE00
:1045D000ACBE0CC70DC70CC74CCFACAD0000000083
:1045E000000000007ECF7ECF7ECF7ECF7ECF7ECFFD
:1045F0007ECF7ECF7ECF7ECF1DC7B7A5F8ADF8ADFD
:10460000F8ADF8ADF8ADF8ADF8AD19AEF48CE41135
:10461000E5110512E511861A092CE823E823E823A1
:10462000082C8934A934A93489348934892CE94483
:10463000CDBEACBEACC62995A984A984C98C309DD9
:10464000359D1495F49414957ECF7ECF7ECF7ECF8A
:104650007ECF7ECF7ECF7ECF7ECF7ECF7ECF7ECFF2
:104660007ECF7ECF7ECF7ECF7ECF7ECF7ECF7ECFE2
:104670009BBE0000410041080000E308E71AC71292
:10468000C712A712271BA934A93489348934893465
:10469000892CC944CCBECBBEACBE4329000001006E
:1046A0000000E7397ECF7ECF7ECF7ECF7ECF7ECF1C
:1046B0007ECF7ECF7ECF7ECF7ECF7ECF7ECF7ECF92
:1046C0007ECF7ECF7ECF7ECF7ECF7ECF7ECF7ECF82
:1046D0007ECF7ECF7AB60000620861082100030910
:1046E000081BE71AE71AC71A4823A934A9348934E2
:1046F00089348934892CC944CCBECBBEACC683294D
:10470000010041000000E7397ECF7ECF7ECF7ECF13
:104710007ECF7ECF7ECF7ECF7ECF7ECF7ECF7ECF31
:104720007ECF7ECF7ECF7ECF7ECF7ECF7ECF7ECF21
:104730007ECF7ECF7ECF7ECF7AB600006208410862
:1047400041000311081BE71AE71AA71A4823A934E6
:104750008934893489348934892CC944CCBECBBE90
:10476000ACBE8329010041000000E8397ECF7ECF36
:104770007ECF7ECF7ECF7ECF7ECF7ECF7ECF7ECFD1
:104780007ECF7ECF7ECF7ECF7ECF7ECF7ECF7ECFC1
:104790007ECF7ECF7ECF7ECF7ECF7ECF7AB600001B
:1047A0002100210000000309281B071B071BE71A33
:1047B0006823CA34C934A934A934A934892CE944FA
:1047C0000DC7ECC6ECCE6329000000000000A63146
:1047D0007ECF7ECF7ECF7ECF7ECF7ECF7ECF7ECF71
:1047E0007ECF7ECF7ECF7ECF7ECF7ECF7ECF7ECF61
:1047F0007ECF7ECF7ECF7ECF7ECF7ECF7ECF7ECF51
:10480000DCC68F63317431741074717C861A861221
:10481000661A661AE71AE82BE82BE82BE82BE82B38
:10482000C823083CAA9D8AA58BA5884A4629C73972
:104830008631317C7ECF7ECF7ECF7ECF7ECF7ECF46
:104840007ECF7ECF7ECF7ECF7ECF7ECF7ECF7ECF00
:104850007ECF7ECF7ECF7ECF7ECF7ECF7ECF7ECFF0
:104860007ECF7ECF7ECF7ECF7ECF7ECF7ECF5ECF00
:1048700020004108410841084108610041006100F1
:1048800061006100610861084100210082107ECF53
:104890007ECF7ECF7ECF7ECF7ECF7ECF7ECF7ECFB0
:1048A0007ECF7ECF7ECF7ECF7ECF7ECF7ECF7ECFA0
:1048B0007ECF7ECF7ECF7ECF7ECF7ECF7ECF7ECF90
:1048C0007ECF7ECF7ECF7ECF7ECF7ECF7ECF7ECF80
:1048D0007ECF5ECF01004200420041004108410806
:1048E00041004108410841084200410842002100BE
:1048F000A3107ECF7ECF7ECF7ECF7ECF7ECF7ECFEA
:104900007ECF7ECF7ECF7ECF7ECF7ECF7ECF7ECF3F
:104910007ECF7ECF7ECF7ECF7ECF7ECF7ECF7ECF2F
:104920007ECF7ECF7ECF7ECF7ECF7ECF7ECF7ECF1F
:104930007ECF7ECF7ECF5ECF000041004108410890
:10494000410841084108410841084108410842081E
:1049500041082100A3107ECF7ECF7ECF7ECF7ECFB9
:104960007ECF7ECF7ECF7ECF7ECF7ECF7ECF7ECFDF
:104970007ECF7ECF7ECF7ECF7ECF7ECF7ECF7ECFCF
:104980007ECF7ECF7ECF7ECF7ECF7ECF7ECF7ECFBF
:104990007ECF7ECF7ECF7ECF7ECF5ECF0000000069
:1049A0000000000000000000000000000000000007
:1049B000000000000000000041087ECF7ECF7ECFC7
:1049C0007ECF7ECF7ECF7ECF7ECF7ECF7ECF7ECF7F
:1049D0007ECF7ECF7ECF7ECF7ECF7ECF7ECF7ECF6F
:1049E0007ECF7ECF7ECF7ECF7ECF7ECF7ECF7ECF5F
:1049F0007ECF7ECF7ECF7ECF7ECF7ECF7ECF7ECF4F
:104A00009284B384B384B384B384B384B384B3840F
:104A1000B384B384B384B384B3849284F48C7ECFA0
:104A20007ECF7ECF7ECF7ECF7ECF7ECF7ECF7ECF1E
:104A30007ECF7ECF7ECF7ECF7ECF7ECF7ECF7ECF0E
:104A40007ECF7ECF7ECF7ECF7ECF7ECF7ECF7ECFFE
:104A50007ECF7ECF7ECF7ECF7ECF7ECF7ECF7ECFEE
:104A60007ECF7ECF7ECF7ECF7ECF7ECF7ECF7ECFDE
:104A70007ECF7ECF7ECF7ECF7ECF7ECF7ECF7ECFCE
:104A80007ECF7ECF7ECF7ECF7ECF7ECF7ECF7ECFBE
:104A90007ECF7ECF7ECF7ECF7ECF7ECF7ECF7ECFAE
:104AA0007ECF7ECF7ECF7ECF7ECF7ECF7ECF7ECF9E
:104AB0007ECF7ECF7ECF7ECF7ECF7ECF7ECF7ECF8E
:104AC0007ECF7ECF7ECF7ECF7ECF7ECF7ECF7ECF7E
:104AD0007ECF7ECF7ECF7ECF7ECF7ECF7ECF7ECF6E
:104AE0007ECF7ECF7ECF7ECF7ECF7ECF7ECF7ECF5E
:104AF0007ECF7ECF7ECF7ECF7ECF7ECF7ECF7ECF4E
:104B00007ECF7ECF7ECF7ECF7ECF7ECF7ECF7ECF3D
:104B10007ECF7ECF7ECF7ECF7ECF7ECF7ECF7ECF2D
:104B20007ECF7ECF7ECF7ECF7ECF7ECF7ECF7ECF1D
:104B30007ECF7ECF7ECF7ECF7ECF7ECF7ECF7ECF0D
:104B40007ECF7ECF7ECF7ECF7ECF7ECF7ECF7ECFFD
:104B50007ECF7ECF7ECF7ECF7ECF7ECF7ECF7ECFED
:104B60007ECF7ECF7ECF7ECF7ECF7ECF7ECF7ECFDD
:104B70007ECF7ECF7ECF7ECF7ECF7ECF7ECF7ECFCD
:104B80007ECF7ECF7ECF7ECF7ECF7ECF7ECF7ECFBD
:104B90007ECF7ECF7ECF7ECF7ECF7ECF7ECF7ECFAD
:104BA0007ECF7ECF7ECF7ECF7ECF7ECF7ECF7ECF9D
:104BB0007ECF7ECF7ECF7ECF7ECF7ECF7ECF7ECF8D
:104BC0007ECF7ECF7ECF7ECF7ECF7ECF7ECF7ECF7D
:104BD0007ECF7ECF7ECF7ECF7ECF7ECF7ECF7ECF6D
:104BE0007ECF7ECF7ECF7ECF7ECF7ECF7ECF7ECF5D
:104BF0007ECF7ECF7ECF7ECF7ECF7ECF7ECF7ECF4D
:104C00007ECF7ECF7ECF7ECF7ECF7ECF7ECF7ECF3C
:104C10007ECF7ECF7ECF7ECF7ECF7ECF7ECF7ECF2C
:104C20007ECF7ECF14000000140000007ECF7ECF28
:104C30007ECF7ECF7ECF7ECF7ECF7ECF7ECF7ECF0C
:104C40007ECF7ECF7ECF7ECF7ECF7ECF7ECF7ECFFC
:104C50007ECF7ECF7ECF7ECF7ECF7ECF7ECF5ECF0C
:104C60003DCF5ECFDFDF7ABEEF7331743074BBBEF1
:104C7000BFDF3ECF5ECF5ECF7ECF7ECF7ECF7ECFFB
:104C80007ECF7ECF5ECF5ECF3DCF1DCFB29C8A5A06
:104C9000000000100010695A1CC7BFD75ECF5ECF5E
:104CA0007ECF7ECF7ECF7ECF7ECF7ECF7ECF5ECFBC
:104CB0009FD796AD6128223827718999AA994138E2
:104CC00027523CCF9FD77ECF7ECF7ECF7ECF7ECF69
:104CD0007ECF7ECF5ECF9FD714A54431A33807790E
:104CE000AAA9AAB9CAB18891C348E741BCBE7FD777
:104CF0007ECF7ECF7ECF7ECF7ECF5ECF7FD7F39C21
:104D0000A64142384779CAA9EBC1CAB9CAB90BC290
:104D100046710000F8AD7ED77ECF7ECF7ECF5ECFCE
:104D20005ECF7FD718BE854942302781A9A90BC223
:104D30002CCA2BCA2BCA0BCA2679000819AE7ED7FB
:104D40007ECF7ECF7ECF7ECF5ECF39BE44318338DB
:104D50000781A9A92BC22BCA2BCA2BCA4BCA2BC2AB
:104D60002671001039AE7FD77ECF7ECF7ECF7FD722
:104D70005ECF084A83402679A9A10BC22BCA2BCA51
:104D80002BCA2BCA0BC2E560C33897AD5ECF5ECF8E
:104D90007ECF7ECF7FD7BFD7D29461180669A9A9ED
:104DA000EBC12CCA0BD22BCA2BCAEAB12671864999
:104DB000B7A57ED73DCF3ECF7ECF7ECF7FD7BFDF9B
:104DC0004C73001088810BCA2CD22CCA0BD22BCA70
:104DD0002BCAA89900388E7359BE1DCF5ECF5ECF07
:104DE0007ECF7ECF7FD7BFDF0F84201867790BBAC5
:104DF0002CD22CCA2BCA2BCA2BCA2BC2CAA96238E6
:104E0000A13059BE9FD77ECF7ECF7ECF7FCF9FD799
:104E1000BBC6AE83823867790CC22CCA4CCA2BCA77
:104E20002BCA2BCA0BCA4899C3500C63DCC67FD768
:104E30007ECF7ECF7ECF5ECFBFD79FDFAA6A0449E9
:104E400027712CC22CCA0CD24CCAACCAADD26DDAB6
:104E500047790000F8AD9FD77ECF7ECF7ECF5ECF63
:104E60005ECF9FD759CEC559A2308889EBB92CCADD
:104E70006CCA4FD34FDBCEE2888100085AB69FD769
:104E80007ECF7ECF7ECF7ECF5ECF5ECF3DCFD7B5FC
:104E90006D7B2020C9890BC26DD22FD32FD3CFDADF
:104EA000A881001039AE9FD77ECF7ECF7ECF7ECF38
:104EB0007ECF5ECF5ECFBFD7DCCE8D7B62380679EA
:104EC0006CD2ADE2EFE22779A238718C3ECF7ED76B
:104ED0007ECF7ECF7ECF7ECF7ECF7ECF5ECF5ECFAA
:104EE0009FD71DCF8D7BC240055906694761C448D5
:104EF000AE833DCF7FD75ECF7ECF7ECF7ECF7ECFBE
:104F00007ECF7ECF5ECF3DCF3ECF7FD73DCF1084CB
:104F1000000881102010EF831DD75ED77ECF7ECF93
:104F20007ECF7ECF7ECF7ECF7ECF7ECF7ECF5ECF39
:104F30005ECF7ECF7FD73ECFDCC6DCC6DCC63ECFA1
:104F40007ED75ECF7ECF7ECF7ECF7ECF3C0000006F
:104F5000320000007ECF7ECF7ECF7ECF7ECF7ECF51
:104F60007ECF7ECF7ECF7ECF7ECF7ECF7ECF7ECFD9
:104F70007ECF7ECF7ECF7ECF7ECF7ECF7ED77DDFB2
:104F80007DE7DFF7FFFFFFFFFFFFFFFFFFFFFFFFF3
:104F9000FFFFFFFFFFFFFFFFFFFFFFFFFFFFFFFF21
:104FA000FFFFFFFFFFFFFFFFFFFFFFFFFFFFFFFF11
:104FB000FFFFFFFFFFFFFFFFFFFFFFFFFFFFFFFF01
:104FC000BFF75DE75DE75DE75DE75DE77ECF7ECF3D
:104FD0007ECF7ECF7ECF7ECF7ECF7ECF7ECF7ECF69
:104FE0007ECF7ECF7ECF7ECF7ECF7ECF7ECF7ECF59
:104FF0007ECF7ECF7ED75DDF7DE7FFFFFFFFFFFF28
:10500000FFFFFFFFFFFFFFFFFFFFFFFFFFFFFFFFB0
:10501000FFFFFFFFFFFFFFFFFFFFFFFFFFFFFFFFA0
:10502000FFFFFFFFFFFFFFFFFFFFFFFFFFFFFFFF90
:10503000FFFFFFFFFFFFFFFFBEF75DE75DE75DE7F7
:105040005DE75DE77ECF7ECF7ECF7ECF7ECF7ECF0A
:105050007ECF7ECF7ECF7ECF7ECF7ECF7ECF7ECFE8
:105060007ECF7ECF7ECF7ECF7ECF7ECF7ED77DDFC1
:105070007DE7FFFFFFFFFFFFFFFFFFFFFFFFFFFFDA
:10508000FFFFFFFFFFFFFFFFFFFFFFFFFFFFFFFF30
:10509000FFFFFFFFFFFFFFFFFFFFFFFFFFFFFFFF20
:1050A000FFFFFFFFFFFFFFFFFFFFFFFFFFFFFFFF10
:1050B000BEF75CDF5DE75DE75DE75DE77ECF7ECF56
:1050C0007ECF7ECF7ECF7ECF7ECF7ECF7ECF7ECF78
:1050D0007ECF7ECF7ECF7ECF7ECF7ECF7ECF7ECF68
:1050E0007ECF7ECF7ED75DDF7DE7FFFFFFFFFFFF37
:1050F000FFFFFFFFFFFFFFFFFFFFFFFFFFFFFFFFC0
:10510000FFFFFFFFFFFFFFFFFFFFFFFFFFFFFFFFAF
:10511000FFFFFFFFFFFFFFFFFFFFFFFFFFFFFFFF9F
:10512000FFFFBEF7BEF7BEEFBEEF9EEF9EEF9EF70E
:105130009EEF9EEF7ECF7ECF7ECF7ECF7ECF7ECF87
:105140007ECF7ECF7ECF7ECF7ECF7ECF7ECF7ECFF7
:105150007ECF7ECF7ECF7ECF7ECF7ECF7ED75DDFF0
:105160005DE7FFFFFFFFFFFFFFFFFFFFFFFFFFFF09
:10517000FFFFFFFFFFFFFFFFFFFFFFFFFFFFFFFF3F
:10518000FFFFFFFFFFFFFFFFFFFFFFFFFFFFFFFF2F
:10519000FFFFFFFFFFFFFFFFFFFF5DE75CE75CDF57
:1051A0009DE7FFFFFFFFFFFFFFFFFFFF7ECF7ECFEB
:1051B0007ECF7ECF7ECF7ECF7ECF7ECF7ECF7ECF87
:1051C0007ECF7ECF7ECF7ECF7ECF7ECF7ECF7ECF77
:1051D0007ECF7ECF7ED77ED77ED7FFFFFFFFFFFF3C
:1051E000FFFFFFFFFFFFFFFFFFFFFFFFFFFFFFFFCF
:1051F000FFFFFFFFFFFFFFFFFFFFFFFFFFFFFFFFBF
:10520000FFFFFFFFFFFFFFFFFFFFFFFFFFFFFFFFAE
:10521000FFFF7DE75CE75CDF9DEFFFFFFFFFFFFF28
:10522000FFFFFFFF7ECF7ECF7ECF7ECF7ECF7ECFB4
:105230007ECF7ECF7ECF7ECF7ECF7ECF7ECF7ECF06
:105240007ECF7ECF7ECF7ECF7ECF7ECF7ECF7ECFF6
:105250007ED7FFF7FFFFFFFFFFFFFFFFFFFFFFFF0F
:10526000FFFFFFFFFFFFFFFFFFFFFFFFFFFFFFFF4E
:10527000FFFFFFFFFFFFFFFFFFFFFFFFFFFFFFFF3E
:10528000FFFFFFFFFFFFFFFFFFFF7DEF7DE75CE715
:105290009EEFFFFFFFFFFFFFFFFFFFFF7ECF7ECFF1
:1052A0007ECF7ECF7ECF7ECF7ECF7ECF7ECF7ECF96
:1052B0007ECF7ECF7ECF7ECF7ECF7ECF7ECF7ECF86
:1052C0007ECF7ECF7ECF7ECF7ECF7ECF7ED75DE777
:1052D000BEF7FFFFFFFFFFFFFFFFFFFFFFFFFFFF27
:1052E000FFFFFFFFFFFFFFFFFFFFFFFFFFFFFFFFCE
:1052F000FFFFFFFFFFFFFFFFFFFFDEF77DE77DE71B
:105300007DE7DEF7DFF7DFF7FFFFFFFFFFFFFFFFC0
:10531000FFFFFFFF7ECF7ECF7ECF7ECF7ECF7ECFC3
:105320007ECF7ECF7ECF7ECF7ECF7ECF7ECF7ECF15
:105330007ECF7ECF7ECF7ECF7ECF7ECF7ECF7ECF05
:105340007ECF7ECF7ED75CE79EEFFFFFFFFFFFFFA4
:10535000FFFFFFFFFFFFFFFFFFFFFFFFFFFFFFFF5D
:10536000FFFFFFFFFFFFFFFFFFFFFFFFFFFFFFFF4D
:10537000FFFFBEF75CDF5DE75DE7FFFFFFFFFFFFBD
:10538000FFFFFFFFFFFFFFFFFFFFFFFF7ECF7ECF8F
:105390007ECF7ECF7ECF7ECF7ECF7ECF7ECF7ECFA5
:1053A0007ECF7ECF7ECF7ECF7ECF7ECF7ECF7ECF95
:1053B0007ECF7ECF7ECF7ECF7ECF7ECF7ED75DDF8E
:1053C0009EEFFFFFFFFFFFFFFFFFFFFFFFFFFFFF5E
:1053D000FFFFFFFFFFFFFFFFFFFFFFFFFFFFFFFFDD
:1053E000FFFFFFFFFFFFFFFFFFFFBEF75CE75DE78B
:1053F0005DE7FFFFFFFFFFFFFFFFFFFFFFFFFFFF77
:10540000FFFFFFFF7ECF7ECF7ECF7ECF7ECF7ECFD2
:105410007ECF7ECF7ECF7ECF7ECF7ECF7ECF7ECF24
:105420007ECF7ECF7ECF7ECF7ECF7ECF7ECF7ECF14
:105430007ECF7ECF7ED75DDF9EEFFFFFFFFFFFFFBA
:10544000FFFFFFFFFFFFFFFFFFFFFFFFFFFFFFFF6C
:10545000FFFFFFFFFFFFFFFFFFFFFFFFFFFFFFFF5C
:10546000FFFFBEF75CE75DE75DE7FFFFFFFFFFFFC4
:10547000FFFFFFFFFFFFFFFFFFFFFFFF7ECF7ECF9E
:105480007ECF7ECF7ECF7ECF7ECF7ECF7ECF7ECFB4
:105490007ECF7ECF7ECF7ECF7ECF7ECF7ECF7ECFA4
:1054A0007ECF7ECF7ECF7ECF7ECF7ECF7ED75DDF9D
:1054B0009EEFFFFFFFFFFFFFFFFFFFFFFFFFFFFF6D
:1054C000FFFFFFFFFFFFFFFFFFFFFFFFFFFFFFFFEC
:1054D000FFFFFFFFFFFFFFFFFFFFBEF75CE75DE79A
:1054E0005DE7FFFFFFFFFFFFFFFFFFFFFFFFFFFF86
:1054F000FFFFFFFF7ECF7ECF7ECF7ECF7ECF7ECFE2
:105500007ECF7ECF7ECF7ECF7ECF7ECF7ECF7ECF33
:105510007ECF7ECF7ECF7ECF7ECF7ECF7ECF7ECF23
:105520007ECF7ECF7ED77ED79EE7FFFFFFFFFFFFB8
:10553000FFFFFFFFFFFFFFFFFFFFFFFFFFFFFFFF7B
:10554000FFFFFFFFFFFFFFFFFFFFFFFFFFFFFFFF6B
:10555000FFFFBEEF5DE75DE75DE7FFFFFFFFFFFFDA
:10556000FFFFFFFFFFFFFFFFFFFFFFFF7ECF7ECFAD
:105570007ECF7ECF7ECF7ECF7ECF7ECF7ECF7ECFC3
:105580007ECF7ECF7ECF7ECF7ECF7ECF7ECF7ECFB3
:105590007ECF7ECF7ECF7ECF7ECF7ECF7ECF7ECFA3
:1055A0009EE7FFFFFFFFFFFFFFFFFFFFFFFFFFFF84
:1055B000FFFFFFFFFFFFFFFFFFFFFFFFFFFFFFFFFB
:1055C000FFFFFFFFFFF7FFFFFFFFBEF75DE75DE7B0
:1055D0005DE7FFFFFFFFFFFFFFFFFFFFFFFFFFFF95
:1055E000FFFFFFFF7ECF7ECF7ECF7ECF7ECF7ECFF1
:1055F0007ECF7ECF7ECF7ECF7ECF7ECF7ECF7ECF43
:105600007ECF7ECF7ECF7ECF7ECF7ECF7ECF7ECF32
:105610007ECF7ECF7ECF7ECF7ECF7ED75DE77DEF04
:10562000FFFFFFFFFFFFFFFFFFFFFFFFFFFFFFFF8A
:10563000FFFFFFFFFFFFFFFFFFFFFFFF7DE77DE7AE
:105640007DE79EEFDFFFDFFFDFF7FFFFFFFFFFFFDD
:10565000FFFFFFFFFFFFFFFFFFFFFFFF7ECF7ECFBC
:105660007ECF7ECF7ECF7ECF7ECF7ECF7ECF7ECFD2
:105670007ECF7ECF7ECF7ECF7ECF7ECF7ECF7ECFC2
:105680007ECF7ECF7ECF7ECF7ECF7ECF7ECF7ECFB2
:105690007ECF7ED75DE75CE7FFFFFFFFFFFFFFFFE9
:1056A000FFFFFFFFFFFFFFFFFFFFFFFFFFFFFFFF0A
:1056B000FFFFFFFF7DE75DDF5DE77EEFFFFFFFFFA1
:1056C000FFFFFFFFFFFFFFFFFFFFFFFFFFFFFFFFEA
:1056D000FFFFFFFF7ECF7ECF7ECF7ECF7ECF7ECF00
:1056E0007ECF7ECF7ECF7ECF7ECF7ECF7ECF7ECF52
:1056F0007ECF7ECF7ECF7ECF7ECF7ECF7ECF7ECF42
:105700007ECF7ECF7ECF7ECF7ECF7ED75CE75CE73D
:10571000FFFFFFFFFFFFFFFFFFFFFFFFFFFFFFFF99
:10572000FFFFFFFFFFFFFFFFFFFFFFFF7DE75DE7DD
:105730005DE79EEFFFFFFFFFFFFFFFFFFFFFFFFFA4
:10574000FFFFFFFFFFFFFFFFFFFFFFFF7ECF7ECFCB
:105750007ECF7ECF7ECF7ECF7ECF7ECF7ECF7ECFE1
:105760007ECF7ECF7ECF7ECF7ECF7ECF7ECF7ECFD1
:105770007ECF7ECF7ECF7ECF7ECF7ECF7ECF7ECFC1
:105780007ECF9EE79EEF9EEFFFFFFFFFFFFFFFFF35
:10579000FFFFFFFFFFFFFFFFFFFFFFFFFFFFFFFF19
:1057A000FFFFFFFF7DE75DE75DE79EEFFFFFFFFF88
:1057B000FFFFFFFFFFFFFFFFFFFFFFFFFFFFFFFFF9
:1057C000FFFFFFFF7ECF7ECF7ECF7ECF7ECF7ECF0F
:1057D0007ECF7ECF7ECF7ECF7ECF7ECF7ECF7ECF61
:1057E0007ECF7ECF7ECF7ECF7ECF7ECF7ECF7ECF51
:1057F0007ECF7ECF7ED77ECFBEEFFFFFFFFFFFFFC6
:10580000FFFFFFFFFFFFFFFFFFFFFFFFFFFFFFFFA8
:10581000FFFFFFFFFFFFFFFFFFFFFFFF7DE75DE7EC
:105820005DE79EEFFFFFFFFFFFFFFFFFFFFFFFFFB3
:10583000FFFFFFFFFFFFFFFFFFFFFFFF7ECF7ECFDA
:105840007ECF7ECF7ECF7ECF7ECF7ECF7ECF7ECFF0
:105850007ECF7ECF7ECF7ECF7ECF7ECF7ECF7ECFE0
:105860007ECF7ECF7ECF7ECF7ECF7ECF7ED77ED7C0
:105870009EEFFFFFFFFFFFFFFFFFFFFFFFFFFFFFA9
:10588000FFFFFFFFFFFFFFFFFFFFFFFFFFFFFFFF28
:10589000FFFFFFFF7DE75DE75DE79EEFFFFFFFFF97
:1058A000FFFFFFFFFFFFFFFFFFFFFFFFFFFFFFFF08
:1058B000FFFFFFFF7ECF7ECF7ECF7ECF7ECF7ECF1E
:1058C0007ECF7ECF7ECF7ECF7ECF7ECF7ECF7ECF70
:1058D0007ECF7ECF7ECF7ECF7ECF7ECF7ECF7ECF60
:1058E0007ECF7ECF7ED75CE79EEFFFFFFFFFFFFFFF
:1058F000FFFFFFFFFFFFFFFFFFFFFFFFFFFFFFFFB8
:10590000FFFFFFFFFFFFFFFFFFFFFFFF7DE75DE7FB
:105910005DE79EEFFFFFFFFFFFFFFFFFFFFFFFFFC2
:10592000FFFFFFFFFFFFFFFFFFFFFFFF7ECF7ECFE9
:105930007ECF7ECF7ECF7ECF7ECF7ECF7ECF7ECFFF
:105940007ECF7ECF7ECF7ECF7ECF7ECF7ECF7ECFEF
:105950007ECF7ECF7ECF7ECF7ECFDFF7FFFFFFFFF4
:10596000FFFFFFFFFFFFFFFFFFFFFFFFFFFFFFFF47
:10597000FFFFFFFFFFFFFFFFFFFFFFFFFFFFFFFF37
:10598000FFFFFFFF7DE75DE75DDF9EEFFFFFFFFFAE
:10599000FFFFFFFFFFFFFFFFFFFFFFFFFFFFFFFF17
:1059A000FFFFFFFF7ECF7ECF7ECF7ECF7ECF7ECF2D
:1059B0007ECF7ECF7ECF7ECF7ECF7ECF7ECF7ECF7F
:1059C0007ECF7ECF7ECF7ED75ED77ED77ED77ECF6F
:1059D0007ED7FFF7FFFFFFFFFFFFFFFFFFFFFFFF88
:1059E000FFFFFFFFFFFFFFFFFFFFFFFFFFFFFFFFC7
:1059F000FFFFFFFFFFFFFFFFFFFFFFFF7DE75DE70B
:105A00005DDF9EEFFFFFFFFFFFFFFFFFFFFFFFFFD9
:105A1000FFFFFFFFFFFFFFFFFFFFFFFF7ECF7ECFF8
:105A20007ECF7ECF7ECF7ECF7ECF7ECF7ECF7ECF0E
:105A30007ECF7ECF7ECF7ECF7ECF7ECF7ECF7ED7F6
:105A40005DE77ED77ECF7ECF7ED7DFF7FFFFFFFFFC
:105A5000FFFFFFFFFFFFFFFFFFFFFFFFFFFFFFFF56
:105A6000FFFFFFFFFFFFFFFFFFFFFFFFFFFFFFFF46
:105A7000FFFFFFFF7DE75DE75DDF9EEFFFFFFFFFBD
:105A8000FFFFFFFFFFFFFFFFFFFFFFFFFFFFFFFF26
:105A9000FFFFFFFF7ECF7ECF7ECF7ECF7ECF7ECF3C
:105AA0007ECF7ECF7ECF7ECF7ECF7ECF7ECF7ECF8E
:105AB0007ECF7ECF7ECF7ED75DE77EDF9EE77EDF27
:105AC0007EE7FFFFFFFFFFFFFFFFFFFFFFFFFFFF7F
:105AD000FFFFFFFFFFFFFFFFFFFFFFFFFFFFFFFFD6
